{
	"data": {
		"bytecode": {
			"linkReferences": {},
			"object": "60806040526001600c55348015610014575f80fd5b5060405161310b38038061310b83398181016040528101906100369190610286565b806040518060400160405280600681526020017f4b696e67737800000000000000000000000000000000000000000000000000008152506040518060400160405280600381526020017f4b4e580000000000000000000000000000000000000000000000000000000000815250815f90816100b191906104eb565b5080600190816100c191906104eb565b5050505f600a5f6101000a81548160ff0219169083151502179055505f73ffffffffffffffffffffffffffffffffffffffff168173ffffffffffffffffffffffffffffffffffffffff160361014d575f6040517f1e4fbdf700000000000000000000000000000000000000000000000000000000815260040161014491906105c9565b60405180910390fd5b61015c8161016360201b60201c565b50506105e2565b5f600a60019054906101000a900473ffffffffffffffffffffffffffffffffffffffff16905081600a60016101000a81548173ffffffffffffffffffffffffffffffffffffffff021916908373ffffffffffffffffffffffffffffffffffffffff1602179055508173ffffffffffffffffffffffffffffffffffffffff168173ffffffffffffffffffffffffffffffffffffffff167f8be0079c531659141344cd1fd0a4f28419497f9722a3daafe3b4186f6b6457e060405160405180910390a35050565b5f80fd5b5f73ffffffffffffffffffffffffffffffffffffffff82169050919050565b5f6102558261022c565b9050919050565b6102658161024b565b811461026f575f80fd5b50565b5f815190506102808161025c565b92915050565b5f6020828403121561029b5761029a610228565b5b5f6102a884828501610272565b91505092915050565b5f81519050919050565b7f4e487b71000000000000000000000000000000000000000000000000000000005f52604160045260245ffd5b7f4e487b71000000000000000000000000000000000000000000000000000000005f52602260045260245ffd5b5f600282049050600182168061032c57607f821691505b60208210810361033f5761033e6102e8565b5b50919050565b5f819050815f5260205f209050919050565b5f6020601f8301049050919050565b5f82821b905092915050565b5f600883026103a17fffffffffffffffffffffffffffffffffffffffffffffffffffffffffffffffff82610366565b6103ab8683610366565b95508019841693508086168417925050509392505050565b5f819050919050565b5f819050919050565b5f6103ef6103ea6103e5846103c3565b6103cc565b6103c3565b9050919050565b5f819050919050565b610408836103d5565b61041c610414826103f6565b848454610372565b825550505050565b5f90565b610430610424565b61043b8184846103ff565b505050565b5b8181101561045e576104535f82610428565b600181019050610441565b5050565b601f8211156104a35761047481610345565b61047d84610357565b8101602085101561048c578190505b6104a061049885610357565b830182610440565b50505b505050565b5f82821c905092915050565b5f6104c35f19846008026104a8565b1980831691505092915050565b5f6104db83836104b4565b9150826002028217905092915050565b6104f4826102b1565b67ffffffffffffffff81111561050d5761050c6102bb565b5b6105178254610315565b610522828285610462565b5f60209050601f831160018114610553575f8415610541578287015190505b61054b85826104d0565b8655506105b2565b601f19841661056186610345565b5f5b8281101561058857848901518255600182019150602085019450602081019050610563565b868310156105a557848901516105a1601f8916826104b4565b8355505b6001600288020188555050505b505050505050565b6105c38161024b565b82525050565b5f6020820190506105dc5f8301846105ba565b92915050565b612b1c806105ef5f395ff3fe60806040526004361061013f575f3560e01c80635c975abb116100b557806395d89b411161006e57806395d89b4114610417578063a22cb46514610441578063b88d4fde14610469578063c87b56dd14610491578063e985e9c5146104cd578063f2fde38b146105095761013f565b80635c975abb1461031f5780636352211e1461034957806370a0823114610385578063715018a6146103c15780638456cb59146103d75780638da5cb5b146103ed5761013f565b806323b872dd1161010757806323b872dd1461023757806326092b831461025f5780632f745c59146102695780633f4ba83a146102a557806342842e0e146102bb5780634f6ccce7146102e35761013f565b806301ffc9a71461014357806306fdde031461017f578063081812fc146101a9578063095ea7b3146101e557806318160ddd1461020d575b5f80fd5b34801561014e575f80fd5b50610169600480360381019061016491906121c0565b610531565b6040516101769190612205565b60405180910390f35b34801561018a575f80fd5b50610193610542565b6040516101a0919061228e565b60405180910390f35b3480156101b4575f80fd5b506101cf60048036038101906101ca91906122e1565b6105d1565b6040516101dc919061234b565b60405180910390f35b3480156101f0575f80fd5b5061020b6004803603810190610206919061238e565b6105ec565b005b348015610218575f80fd5b50610221610602565b60405161022e91906123db565b60405180910390f35b348015610242575f80fd5b5061025d600480360381019061025891906123f4565b61060e565b005b61026761070d565b005b348015610274575f80fd5b5061028f600480360381019061028a919061238e565b6107c7565b60405161029c91906123db565b60405180910390f35b3480156102b0575f80fd5b506102b961086b565b005b3480156102c6575f80fd5b506102e160048036038101906102dc91906123f4565b61087d565b005b3480156102ee575f80fd5b50610309600480360381019061030491906122e1565b61089c565b60405161031691906123db565b60405180910390f35b34801561032a575f80fd5b5061033361090e565b6040516103409190612205565b60405180910390f35b348015610354575f80fd5b5061036f600480360381019061036a91906122e1565b610923565b60405161037c919061234b565b60405180910390f35b348015610390575f80fd5b506103ab60048036038101906103a69190612444565b610934565b6040516103b891906123db565b60405180910390f35b3480156103cc575f80fd5b506103d56109ea565b005b3480156103e2575f80fd5b506103eb6109fd565b005b3480156103f8575f80fd5b50610401610a0f565b60405161040e919061234b565b60405180910390f35b348015610422575f80fd5b5061042b610a38565b604051610438919061228e565b60405180910390f35b34801561044c575f80fd5b5061046760048036038101906104629190612499565b610ac8565b005b348015610474575f80fd5b5061048f600480360381019061048a9190612603565b610ade565b005b34801561049c575f80fd5b506104b760048036038101906104b291906122e1565b610b03565b6040516104c4919061228e565b60405180910390f35b3480156104d8575f80fd5b506104f360048036038101906104ee9190612683565b610b69565b6040516105009190612205565b60405180910390f35b348015610514575f80fd5b5061052f600480360381019061052a9190612444565b610bf7565b005b5f61053b82610c7b565b9050919050565b60605f8054610550906126ee565b80601f016020809104026020016040519081016040528092919081815260200182805461057c906126ee565b80156105c75780601f1061059e576101008083540402835291602001916105c7565b820191905f5260205f20905b8154815290600101906020018083116105aa57829003601f168201915b5050505050905090565b5f6105db82610cf4565b506105e582610d7a565b9050919050565b6105fe82826105f9610db3565b610dba565b5050565b5f600880549050905090565b5f73ffffffffffffffffffffffffffffffffffffffff168273ffffffffffffffffffffffffffffffffffffffff160361067e575f6040517f64a0ae92000000000000000000000000000000000000000000000000000000008152600401610675919061234b565b60405180910390fd5b5f610691838361068c610db3565b610dcc565b90508373ffffffffffffffffffffffffffffffffffffffff168173ffffffffffffffffffffffffffffffffffffffff1614610707578382826040517f64283d7b0000000000000000000000000000000000000000000000000000000081526004016106fe9392919061271e565b60405180910390fd5b50505050565b662386f26fc100003414610756576040517f08c379a000000000000000000000000000000000000000000000000000000000815260040161074d9061279d565b60405180910390fd5b600c54610761610602565b106107a1576040517f08c379a000000000000000000000000000000000000000000000000000000000815260040161079890612805565b60405180910390fd5b5f600b5f8154809291906107b490612850565b9190505590506107c43382610de1565b50565b5f6107d183610934565b82106108165782826040517fa57d13dc00000000000000000000000000000000000000000000000000000000815260040161080d929190612897565b60405180910390fd5b60065f8473ffffffffffffffffffffffffffffffffffffffff1673ffffffffffffffffffffffffffffffffffffffff1681526020019081526020015f205f8381526020019081526020015f2054905092915050565b610873610dfe565b61087b610e85565b565b61089783838360405180602001604052805f815250610ade565b505050565b5f6108a5610602565b82106108ea575f826040517fa57d13dc0000000000000000000000000000000000000000000000000000000081526004016108e1929190612897565b60405180910390fd5b600882815481106108fe576108fd6128be565b5b905f5260205f2001549050919050565b5f600a5f9054906101000a900460ff16905090565b5f61092d82610cf4565b9050919050565b5f8073ffffffffffffffffffffffffffffffffffffffff168273ffffffffffffffffffffffffffffffffffffffff16036109a5575f6040517f89c62b6400000000000000000000000000000000000000000000000000000000815260040161099c919061234b565b60405180910390fd5b60035f8373ffffffffffffffffffffffffffffffffffffffff1673ffffffffffffffffffffffffffffffffffffffff1681526020019081526020015f20549050919050565b6109f2610dfe565b6109fb5f610ee6565b565b610a05610dfe565b610a0d610fab565b565b5f600a60019054906101000a900473ffffffffffffffffffffffffffffffffffffffff16905090565b606060018054610a47906126ee565b80601f0160208091040260200160405190810160405280929190818152602001828054610a73906126ee565b8015610abe5780601f10610a9557610100808354040283529160200191610abe565b820191905f5260205f20905b815481529060010190602001808311610aa157829003601f168201915b5050505050905090565b610ada610ad3610db3565b838361100d565b5050565b610ae984848461060e565b610afd610af4610db3565b85858585611176565b50505050565b6060610b0e82610cf4565b505f610b18611322565b90505f815111610b365760405180602001604052805f815250610b61565b80610b4084611342565b604051602001610b51929190612925565b6040516020818303038152906040525b915050919050565b5f60055f8473ffffffffffffffffffffffffffffffffffffffff1673ffffffffffffffffffffffffffffffffffffffff1681526020019081526020015f205f8373ffffffffffffffffffffffffffffffffffffffff1673ffffffffffffffffffffffffffffffffffffffff1681526020019081526020015f205f9054906101000a900460ff16905092915050565b610bff610dfe565b5f73ffffffffffffffffffffffffffffffffffffffff168173ffffffffffffffffffffffffffffffffffffffff1603610c6f575f6040517f1e4fbdf7000000000000000000000000000000000000000000000000000000008152600401610c66919061234b565b60405180910390fd5b610c7881610ee6565b50565b5f7f780e9d63000000000000000000000000000000000000000000000000000000007bffffffffffffffffffffffffffffffffffffffffffffffffffffffff1916827bffffffffffffffffffffffffffffffffffffffffffffffffffffffff19161480610ced5750610cec8261140c565b5b9050919050565b5f80610cff836114ed565b90505f73ffffffffffffffffffffffffffffffffffffffff168173ffffffffffffffffffffffffffffffffffffffff1603610d7157826040517f7e273289000000000000000000000000000000000000000000000000000000008152600401610d6891906123db565b60405180910390fd5b80915050919050565b5f60045f8381526020019081526020015f205f9054906101000a900473ffffffffffffffffffffffffffffffffffffffff169050919050565b5f33905090565b610dc78383836001611526565b505050565b5f610dd88484846116e5565b90509392505050565b610dfa828260405180602001604052805f815250611702565b5050565b610e06610db3565b73ffffffffffffffffffffffffffffffffffffffff16610e24610a0f565b73ffffffffffffffffffffffffffffffffffffffff1614610e8357610e47610db3565b6040517f118cdaa7000000000000000000000000000000000000000000000000000000008152600401610e7a919061234b565b60405180910390fd5b565b610e8d611725565b5f600a5f6101000a81548160ff0219169083151502179055507f5db9ee0a495bf2e6ff9c91a7834c1ba4fdd244a5e8aa4e537bd38aeae4b073aa610ecf610db3565b604051610edc919061234b565b60405180910390a1565b5f600a60019054906101000a900473ffffffffffffffffffffffffffffffffffffffff16905081600a60016101000a81548173ffffffffffffffffffffffffffffffffffffffff021916908373ffffffffffffffffffffffffffffffffffffffff1602179055508173ffffffffffffffffffffffffffffffffffffffff168173ffffffffffffffffffffffffffffffffffffffff167f8be0079c531659141344cd1fd0a4f28419497f9722a3daafe3b4186f6b6457e060405160405180910390a35050565b610fb3611765565b6001600a5f6101000a81548160ff0219169083151502179055507f62e78cea01bee320cd4e420270b5ea74000d11b0c9f74754ebdbfc544b05a258610ff6610db3565b604051611003919061234b565b60405180910390a1565b5f73ffffffffffffffffffffffffffffffffffffffff168273ffffffffffffffffffffffffffffffffffffffff160361107d57816040517f5b08ba18000000000000000000000000000000000000000000000000000000008152600401611074919061234b565b60405180910390fd5b8060055f8573ffffffffffffffffffffffffffffffffffffffff1673ffffffffffffffffffffffffffffffffffffffff1681526020019081526020015f205f8473ffffffffffffffffffffffffffffffffffffffff1673ffffffffffffffffffffffffffffffffffffffff1681526020019081526020015f205f6101000a81548160ff0219169083151502179055508173ffffffffffffffffffffffffffffffffffffffff168373ffffffffffffffffffffffffffffffffffffffff167f17307eab39ab6107e8899845ad3d59bd9653f200f220920489ca2b5937696c31836040516111699190612205565b60405180910390a3505050565b5f8373ffffffffffffffffffffffffffffffffffffffff163b111561131b578273ffffffffffffffffffffffffffffffffffffffff1663150b7a02868685856040518563ffffffff1660e01b81526004016111d4949392919061299a565b6020604051808303815f875af192505050801561120f57506040513d601f19601f8201168201806040525081019061120c91906129f8565b60015b611290573d805f811461123d576040519150601f19603f3d011682016040523d82523d5f602084013e611242565b606091505b505f81510361128857836040517f64a0ae9200000000000000000000000000000000000000000000000000000000815260040161127f919061234b565b60405180910390fd5b805181602001fd5b63150b7a0260e01b7bffffffffffffffffffffffffffffffffffffffffffffffffffffffff1916817bffffffffffffffffffffffffffffffffffffffffffffffffffffffff19161461131957836040517f64a0ae92000000000000000000000000000000000000000000000000000000008152600401611310919061234b565b60405180910390fd5b505b5050505050565b6060604051806060016040528060368152602001612ab160369139905090565b60605f6001611350846117a6565b0190505f8167ffffffffffffffff81111561136e5761136d6124df565b5b6040519080825280601f01601f1916602001820160405280156113a05781602001600182028036833780820191505090505b5090505f82602001820190505b600115611401578080600190039150507f3031323334353637383961626364656600000000000000000000000000000000600a86061a8153600a85816113f6576113f5612a23565b5b0494505f85036113ad575b819350505050919050565b5f7f80ac58cd000000000000000000000000000000000000000000000000000000007bffffffffffffffffffffffffffffffffffffffffffffffffffffffff1916827bffffffffffffffffffffffffffffffffffffffffffffffffffffffff191614806114d657507f5b5e139f000000000000000000000000000000000000000000000000000000007bffffffffffffffffffffffffffffffffffffffffffffffffffffffff1916827bffffffffffffffffffffffffffffffffffffffffffffffffffffffff1916145b806114e657506114e5826118f7565b5b9050919050565b5f60025f8381526020019081526020015f205f9054906101000a900473ffffffffffffffffffffffffffffffffffffffff169050919050565b808061155e57505f73ffffffffffffffffffffffffffffffffffffffff168273ffffffffffffffffffffffffffffffffffffffff1614155b15611690575f61156d84610cf4565b90505f73ffffffffffffffffffffffffffffffffffffffff168373ffffffffffffffffffffffffffffffffffffffff16141580156115d757508273ffffffffffffffffffffffffffffffffffffffff168173ffffffffffffffffffffffffffffffffffffffff1614155b80156115ea57506115e88184610b69565b155b1561162c57826040517fa9fbf51f000000000000000000000000000000000000000000000000000000008152600401611623919061234b565b60405180910390fd5b811561168e57838573ffffffffffffffffffffffffffffffffffffffff168273ffffffffffffffffffffffffffffffffffffffff167f8c5be1e5ebec7d5bd14f71427d1e84f3dd0314c0f7b2291e5b200ac8c7c3b92560405160405180910390a45b505b8360045f8581526020019081526020015f205f6101000a81548173ffffffffffffffffffffffffffffffffffffffff021916908373ffffffffffffffffffffffffffffffffffffffff16021790555050505050565b5f6116ee611765565b6116f9848484611960565b90509392505050565b61170c8383611a7a565b611720611717610db3565b5f858585611176565b505050565b61172d61090e565b611763576040517f8dfc202b00000000000000000000000000000000000000000000000000000000815260040160405180910390fd5b565b61176d61090e565b156117a4576040517fd93c066500000000000000000000000000000000000000000000000000000000815260040160405180910390fd5b565b5f805f90507a184f03e93ff9f4daa797ed6e38ed64bf6a1f0100000000000000008310611802577a184f03e93ff9f4daa797ed6e38ed64bf6a1f01000000000000000083816117f8576117f7612a23565b5b0492506040810190505b6d04ee2d6d415b85acef8100000000831061183f576d04ee2d6d415b85acef8100000000838161183557611834612a23565b5b0492506020810190505b662386f26fc10000831061186e57662386f26fc10000838161186457611863612a23565b5b0492506010810190505b6305f5e1008310611897576305f5e100838161188d5761188c612a23565b5b0492506008810190505b61271083106118bc5761271083816118b2576118b1612a23565b5b0492506004810190505b606483106118df57606483816118d5576118d4612a23565b5b0492506002810190505b600a83106118ee576001810190505b80915050919050565b5f7f01ffc9a7000000000000000000000000000000000000000000000000000000007bffffffffffffffffffffffffffffffffffffffffffffffffffffffff1916827bffffffffffffffffffffffffffffffffffffffffffffffffffffffff1916149050919050565b5f8061196d858585611b6d565b90505f73ffffffffffffffffffffffffffffffffffffffff168173ffffffffffffffffffffffffffffffffffffffff16036119b0576119ab84611d78565b6119ef565b8473ffffffffffffffffffffffffffffffffffffffff168173ffffffffffffffffffffffffffffffffffffffff16146119ee576119ed8185611dbc565b5b5b5f73ffffffffffffffffffffffffffffffffffffffff168573ffffffffffffffffffffffffffffffffffffffff1603611a3057611a2b84611e93565b611a6f565b8473ffffffffffffffffffffffffffffffffffffffff168173ffffffffffffffffffffffffffffffffffffffff1614611a6e57611a6d8585611f53565b5b5b809150509392505050565b5f73ffffffffffffffffffffffffffffffffffffffff168273ffffffffffffffffffffffffffffffffffffffff1603611aea575f6040517f64a0ae92000000000000000000000000000000000000000000000000000000008152600401611ae1919061234b565b60405180910390fd5b5f611af683835f610dcc565b90505f73ffffffffffffffffffffffffffffffffffffffff168173ffffffffffffffffffffffffffffffffffffffff1614611b68575f6040517f73c6ac6e000000000000000000000000000000000000000000000000000000008152600401611b5f919061234b565b60405180910390fd5b505050565b5f80611b78846114ed565b90505f73ffffffffffffffffffffffffffffffffffffffff168373ffffffffffffffffffffffffffffffffffffffff1614611bb957611bb8818486611fd7565b5b5f73ffffffffffffffffffffffffffffffffffffffff168173ffffffffffffffffffffffffffffffffffffffff1614611c4457611bf85f855f80611526565b600160035f8373ffffffffffffffffffffffffffffffffffffffff1673ffffffffffffffffffffffffffffffffffffffff1681526020019081526020015f205f82825403925050819055505b5f73ffffffffffffffffffffffffffffffffffffffff168573ffffffffffffffffffffffffffffffffffffffff1614611cc357600160035f8773ffffffffffffffffffffffffffffffffffffffff1673ffffffffffffffffffffffffffffffffffffffff1681526020019081526020015f205f82825401925050819055505b8460025f8681526020019081526020015f205f6101000a81548173ffffffffffffffffffffffffffffffffffffffff021916908373ffffffffffffffffffffffffffffffffffffffff160217905550838573ffffffffffffffffffffffffffffffffffffffff168273ffffffffffffffffffffffffffffffffffffffff167fddf252ad1be2c89b69c2b068fc378daa952ba7f163c4a11628f55a4df523b3ef60405160405180910390a4809150509392505050565b60088054905060095f8381526020019081526020015f2081905550600881908060018154018082558091505060019003905f5260205f20015f909190919091505550565b5f611dc683610934565b90505f60075f8481526020019081526020015f205490505f60065f8673ffffffffffffffffffffffffffffffffffffffff1673ffffffffffffffffffffffffffffffffffffffff1681526020019081526020015f209050828214611e65575f815f8581526020019081526020015f2054905080825f8581526020019081526020015f20819055508260075f8381526020019081526020015f2081905550505b60075f8581526020019081526020015f205f9055805f8481526020019081526020015f205f90555050505050565b5f6001600880549050611ea69190612a50565b90505f60095f8481526020019081526020015f205490505f60088381548110611ed257611ed16128be565b5b905f5260205f20015490508060088381548110611ef257611ef16128be565b5b905f5260205f2001819055508160095f8381526020019081526020015f208190555060095f8581526020019081526020015f205f90556008805480611f3a57611f39612a83565b5b600190038181905f5260205f20015f9055905550505050565b5f6001611f5f84610934565b611f699190612a50565b90508160065f8573ffffffffffffffffffffffffffffffffffffffff1673ffffffffffffffffffffffffffffffffffffffff1681526020019081526020015f205f8381526020019081526020015f20819055508060075f8481526020019081526020015f2081905550505050565b611fe283838361209a565b612095575f73ffffffffffffffffffffffffffffffffffffffff168373ffffffffffffffffffffffffffffffffffffffff160361205657806040517f7e27328900000000000000000000000000000000000000000000000000000000815260040161204d91906123db565b60405180910390fd5b81816040517f177e802f00000000000000000000000000000000000000000000000000000000815260040161208c929190612897565b60405180910390fd5b505050565b5f8073ffffffffffffffffffffffffffffffffffffffff168373ffffffffffffffffffffffffffffffffffffffff161415801561215157508273ffffffffffffffffffffffffffffffffffffffff168473ffffffffffffffffffffffffffffffffffffffff16148061211257506121118484610b69565b5b8061215057508273ffffffffffffffffffffffffffffffffffffffff1661213883610d7a565b73ffffffffffffffffffffffffffffffffffffffff16145b5b90509392505050565b5f604051905090565b5f80fd5b5f80fd5b5f7fffffffff0000000000000000000000000000000000000000000000000000000082169050919050565b61219f8161216b565b81146121a9575f80fd5b50565b5f813590506121ba81612196565b92915050565b5f602082840312156121d5576121d4612163565b5b5f6121e2848285016121ac565b91505092915050565b5f8115159050919050565b6121ff816121eb565b82525050565b5f6020820190506122185f8301846121f6565b92915050565b5f81519050919050565b5f82825260208201905092915050565b8281835e5f83830152505050565b5f601f19601f8301169050919050565b5f6122608261221e565b61226a8185612228565b935061227a818560208601612238565b61228381612246565b840191505092915050565b5f6020820190508181035f8301526122a68184612256565b905092915050565b5f819050919050565b6122c0816122ae565b81146122ca575f80fd5b50565b5f813590506122db816122b7565b92915050565b5f602082840312156122f6576122f5612163565b5b5f612303848285016122cd565b91505092915050565b5f73ffffffffffffffffffffffffffffffffffffffff82169050919050565b5f6123358261230c565b9050919050565b6123458161232b565b82525050565b5f60208201905061235e5f83018461233c565b92915050565b61236d8161232b565b8114612377575f80fd5b50565b5f8135905061238881612364565b92915050565b5f80604083850312156123a4576123a3612163565b5b5f6123b18582860161237a565b92505060206123c2858286016122cd565b9150509250929050565b6123d5816122ae565b82525050565b5f6020820190506123ee5f8301846123cc565b92915050565b5f805f6060848603121561240b5761240a612163565b5b5f6124188682870161237a565b93505060206124298682870161237a565b925050604061243a868287016122cd565b9150509250925092565b5f6020828403121561245957612458612163565b5b5f6124668482850161237a565b91505092915050565b612478816121eb565b8114612482575f80fd5b50565b5f813590506124938161246f565b92915050565b5f80604083850312156124af576124ae612163565b5b5f6124bc8582860161237a565b92505060206124cd85828601612485565b9150509250929050565b5f80fd5b5f80fd5b7f4e487b71000000000000000000000000000000000000000000000000000000005f52604160045260245ffd5b61251582612246565b810181811067ffffffffffffffff82111715612534576125336124df565b5b80604052505050565b5f61254661215a565b9050612552828261250c565b919050565b5f67ffffffffffffffff821115612571576125706124df565b5b61257a82612246565b9050602081019050919050565b828183375f83830152505050565b5f6125a76125a284612557565b61253d565b9050828152602081018484840111156125c3576125c26124db565b5b6125ce848285612587565b509392505050565b5f82601f8301126125ea576125e96124d7565b5b81356125fa848260208601612595565b91505092915050565b5f805f806080858703121561261b5761261a612163565b5b5f6126288782880161237a565b94505060206126398782880161237a565b935050604061264a878288016122cd565b925050606085013567ffffffffffffffff81111561266b5761266a612167565b5b612677878288016125d6565b91505092959194509250565b5f806040838503121561269957612698612163565b5b5f6126a68582860161237a565b92505060206126b78582860161237a565b9150509250929050565b7f4e487b71000000000000000000000000000000000000000000000000000000005f52602260045260245ffd5b5f600282049050600182168061270557607f821691505b602082108103612718576127176126c1565b5b50919050565b5f6060820190506127315f83018661233c565b61273e60208301856123cc565b61274b604083018461233c565b949350505050565b7f4e6f7420656e6f7567682066756e6473000000000000000000000000000000005f82015250565b5f612787601083612228565b915061279282612753565b602082019050919050565b5f6020820190508181035f8301526127b48161277b565b9050919050565b7f576520536f6c64204f75742100000000000000000000000000000000000000005f82015250565b5f6127ef600c83612228565b91506127fa826127bb565b602082019050919050565b5f6020820190508181035f83015261281c816127e3565b9050919050565b7f4e487b71000000000000000000000000000000000000000000000000000000005f52601160045260245ffd5b5f61285a826122ae565b91507fffffffffffffffffffffffffffffffffffffffffffffffffffffffffffffffff820361288c5761288b612823565b5b600182019050919050565b5f6040820190506128aa5f83018561233c565b6128b760208301846123cc565b9392505050565b7f4e487b71000000000000000000000000000000000000000000000000000000005f52603260045260245ffd5b5f81905092915050565b5f6128ff8261221e565b61290981856128eb565b9350612919818560208601612238565b80840191505092915050565b5f61293082856128f5565b915061293c82846128f5565b91508190509392505050565b5f81519050919050565b5f82825260208201905092915050565b5f61296c82612948565b6129768185612952565b9350612986818560208601612238565b61298f81612246565b840191505092915050565b5f6080820190506129ad5f83018761233c565b6129ba602083018661233c565b6129c760408301856123cc565b81810360608301526129d98184612962565b905095945050505050565b5f815190506129f281612196565b92915050565b5f60208284031215612a0d57612a0c612163565b5b5f612a1a848285016129e4565b91505092915050565b7f4e487b71000000000000000000000000000000000000000000000000000000005f52601260045260245ffd5b5f612a5a826122ae565b9150612a65836122ae565b9250828203905081811115612a7d57612a7c612823565b5b92915050565b7f4e487b71000000000000000000000000000000000000000000000000000000005f52603160045260245ffdfe697066733a2f2f516d593572507147544e31725a784d516732417069535a63374a69424e73317279447a58505a705168433169626d2fa2646970667358221220d5723668d73527b952a533b784a58d8c3a2cc42d7e2d232cee73f42bf244b4a364736f6c634300081a0033",
			"opcodes": "PUSH1 0x80 PUSH1 0x40 MSTORE PUSH1 0x1 PUSH1 0xC SSTORE CALLVALUE DUP1 ISZERO PUSH2 0x14 JUMPI PUSH0 DUP1 REVERT JUMPDEST POP PUSH1 0x40 MLOAD PUSH2 0x310B CODESIZE SUB DUP1 PUSH2 0x310B DUP4 CODECOPY DUP2 DUP2 ADD PUSH1 0x40 MSTORE DUP2 ADD SWAP1 PUSH2 0x36 SWAP2 SWAP1 PUSH2 0x286 JUMP JUMPDEST DUP1 PUSH1 0x40 MLOAD DUP1 PUSH1 0x40 ADD PUSH1 0x40 MSTORE DUP1 PUSH1 0x6 DUP2 MSTORE PUSH1 0x20 ADD PUSH32 0x4B696E6773780000000000000000000000000000000000000000000000000000 DUP2 MSTORE POP PUSH1 0x40 MLOAD DUP1 PUSH1 0x40 ADD PUSH1 0x40 MSTORE DUP1 PUSH1 0x3 DUP2 MSTORE PUSH1 0x20 ADD PUSH32 0x4B4E580000000000000000000000000000000000000000000000000000000000 DUP2 MSTORE POP DUP2 PUSH0 SWAP1 DUP2 PUSH2 0xB1 SWAP2 SWAP1 PUSH2 0x4EB JUMP JUMPDEST POP DUP1 PUSH1 0x1 SWAP1 DUP2 PUSH2 0xC1 SWAP2 SWAP1 PUSH2 0x4EB JUMP JUMPDEST POP POP POP PUSH0 PUSH1 0xA PUSH0 PUSH2 0x100 EXP DUP2 SLOAD DUP2 PUSH1 0xFF MUL NOT AND SWAP1 DUP4 ISZERO ISZERO MUL OR SWAP1 SSTORE POP PUSH0 PUSH20 0xFFFFFFFFFFFFFFFFFFFFFFFFFFFFFFFFFFFFFFFF AND DUP2 PUSH20 0xFFFFFFFFFFFFFFFFFFFFFFFFFFFFFFFFFFFFFFFF AND SUB PUSH2 0x14D JUMPI PUSH0 PUSH1 0x40 MLOAD PUSH32 0x1E4FBDF700000000000000000000000000000000000000000000000000000000 DUP2 MSTORE PUSH1 0x4 ADD PUSH2 0x144 SWAP2 SWAP1 PUSH2 0x5C9 JUMP JUMPDEST PUSH1 0x40 MLOAD DUP1 SWAP2 SUB SWAP1 REVERT JUMPDEST PUSH2 0x15C DUP2 PUSH2 0x163 PUSH1 0x20 SHL PUSH1 0x20 SHR JUMP JUMPDEST POP POP PUSH2 0x5E2 JUMP JUMPDEST PUSH0 PUSH1 0xA PUSH1 0x1 SWAP1 SLOAD SWAP1 PUSH2 0x100 EXP SWAP1 DIV PUSH20 0xFFFFFFFFFFFFFFFFFFFFFFFFFFFFFFFFFFFFFFFF AND SWAP1 POP DUP2 PUSH1 0xA PUSH1 0x1 PUSH2 0x100 EXP DUP2 SLOAD DUP2 PUSH20 0xFFFFFFFFFFFFFFFFFFFFFFFFFFFFFFFFFFFFFFFF MUL NOT AND SWAP1 DUP4 PUSH20 0xFFFFFFFFFFFFFFFFFFFFFFFFFFFFFFFFFFFFFFFF AND MUL OR SWAP1 SSTORE POP DUP2 PUSH20 0xFFFFFFFFFFFFFFFFFFFFFFFFFFFFFFFFFFFFFFFF AND DUP2 PUSH20 0xFFFFFFFFFFFFFFFFFFFFFFFFFFFFFFFFFFFFFFFF AND PUSH32 0x8BE0079C531659141344CD1FD0A4F28419497F9722A3DAAFE3B4186F6B6457E0 PUSH1 0x40 MLOAD PUSH1 0x40 MLOAD DUP1 SWAP2 SUB SWAP1 LOG3 POP POP JUMP JUMPDEST PUSH0 DUP1 REVERT JUMPDEST PUSH0 PUSH20 0xFFFFFFFFFFFFFFFFFFFFFFFFFFFFFFFFFFFFFFFF DUP3 AND SWAP1 POP SWAP2 SWAP1 POP JUMP JUMPDEST PUSH0 PUSH2 0x255 DUP3 PUSH2 0x22C JUMP JUMPDEST SWAP1 POP SWAP2 SWAP1 POP JUMP JUMPDEST PUSH2 0x265 DUP2 PUSH2 0x24B JUMP JUMPDEST DUP2 EQ PUSH2 0x26F JUMPI PUSH0 DUP1 REVERT JUMPDEST POP JUMP JUMPDEST PUSH0 DUP2 MLOAD SWAP1 POP PUSH2 0x280 DUP2 PUSH2 0x25C JUMP JUMPDEST SWAP3 SWAP2 POP POP JUMP JUMPDEST PUSH0 PUSH1 0x20 DUP3 DUP5 SUB SLT ISZERO PUSH2 0x29B JUMPI PUSH2 0x29A PUSH2 0x228 JUMP JUMPDEST JUMPDEST PUSH0 PUSH2 0x2A8 DUP5 DUP3 DUP6 ADD PUSH2 0x272 JUMP JUMPDEST SWAP2 POP POP SWAP3 SWAP2 POP POP JUMP JUMPDEST PUSH0 DUP2 MLOAD SWAP1 POP SWAP2 SWAP1 POP JUMP JUMPDEST PUSH32 0x4E487B7100000000000000000000000000000000000000000000000000000000 PUSH0 MSTORE PUSH1 0x41 PUSH1 0x4 MSTORE PUSH1 0x24 PUSH0 REVERT JUMPDEST PUSH32 0x4E487B7100000000000000000000000000000000000000000000000000000000 PUSH0 MSTORE PUSH1 0x22 PUSH1 0x4 MSTORE PUSH1 0x24 PUSH0 REVERT JUMPDEST PUSH0 PUSH1 0x2 DUP3 DIV SWAP1 POP PUSH1 0x1 DUP3 AND DUP1 PUSH2 0x32C JUMPI PUSH1 0x7F DUP3 AND SWAP2 POP JUMPDEST PUSH1 0x20 DUP3 LT DUP2 SUB PUSH2 0x33F JUMPI PUSH2 0x33E PUSH2 0x2E8 JUMP JUMPDEST JUMPDEST POP SWAP2 SWAP1 POP JUMP JUMPDEST PUSH0 DUP2 SWAP1 POP DUP2 PUSH0 MSTORE PUSH1 0x20 PUSH0 KECCAK256 SWAP1 POP SWAP2 SWAP1 POP JUMP JUMPDEST PUSH0 PUSH1 0x20 PUSH1 0x1F DUP4 ADD DIV SWAP1 POP SWAP2 SWAP1 POP JUMP JUMPDEST PUSH0 DUP3 DUP3 SHL SWAP1 POP SWAP3 SWAP2 POP POP JUMP JUMPDEST PUSH0 PUSH1 0x8 DUP4 MUL PUSH2 0x3A1 PUSH32 0xFFFFFFFFFFFFFFFFFFFFFFFFFFFFFFFFFFFFFFFFFFFFFFFFFFFFFFFFFFFFFFFF DUP3 PUSH2 0x366 JUMP JUMPDEST PUSH2 0x3AB DUP7 DUP4 PUSH2 0x366 JUMP JUMPDEST SWAP6 POP DUP1 NOT DUP5 AND SWAP4 POP DUP1 DUP7 AND DUP5 OR SWAP3 POP POP POP SWAP4 SWAP3 POP POP POP JUMP JUMPDEST PUSH0 DUP2 SWAP1 POP SWAP2 SWAP1 POP JUMP JUMPDEST PUSH0 DUP2 SWAP1 POP SWAP2 SWAP1 POP JUMP JUMPDEST PUSH0 PUSH2 0x3EF PUSH2 0x3EA PUSH2 0x3E5 DUP5 PUSH2 0x3C3 JUMP JUMPDEST PUSH2 0x3CC JUMP JUMPDEST PUSH2 0x3C3 JUMP JUMPDEST SWAP1 POP SWAP2 SWAP1 POP JUMP JUMPDEST PUSH0 DUP2 SWAP1 POP SWAP2 SWAP1 POP JUMP JUMPDEST PUSH2 0x408 DUP4 PUSH2 0x3D5 JUMP JUMPDEST PUSH2 0x41C PUSH2 0x414 DUP3 PUSH2 0x3F6 JUMP JUMPDEST DUP5 DUP5 SLOAD PUSH2 0x372 JUMP JUMPDEST DUP3 SSTORE POP POP POP POP JUMP JUMPDEST PUSH0 SWAP1 JUMP JUMPDEST PUSH2 0x430 PUSH2 0x424 JUMP JUMPDEST PUSH2 0x43B DUP2 DUP5 DUP5 PUSH2 0x3FF JUMP JUMPDEST POP POP POP JUMP JUMPDEST JUMPDEST DUP2 DUP2 LT ISZERO PUSH2 0x45E JUMPI PUSH2 0x453 PUSH0 DUP3 PUSH2 0x428 JUMP JUMPDEST PUSH1 0x1 DUP2 ADD SWAP1 POP PUSH2 0x441 JUMP JUMPDEST POP POP JUMP JUMPDEST PUSH1 0x1F DUP3 GT ISZERO PUSH2 0x4A3 JUMPI PUSH2 0x474 DUP2 PUSH2 0x345 JUMP JUMPDEST PUSH2 0x47D DUP5 PUSH2 0x357 JUMP JUMPDEST DUP2 ADD PUSH1 0x20 DUP6 LT ISZERO PUSH2 0x48C JUMPI DUP2 SWAP1 POP JUMPDEST PUSH2 0x4A0 PUSH2 0x498 DUP6 PUSH2 0x357 JUMP JUMPDEST DUP4 ADD DUP3 PUSH2 0x440 JUMP JUMPDEST POP POP JUMPDEST POP POP POP JUMP JUMPDEST PUSH0 DUP3 DUP3 SHR SWAP1 POP SWAP3 SWAP2 POP POP JUMP JUMPDEST PUSH0 PUSH2 0x4C3 PUSH0 NOT DUP5 PUSH1 0x8 MUL PUSH2 0x4A8 JUMP JUMPDEST NOT DUP1 DUP4 AND SWAP2 POP POP SWAP3 SWAP2 POP POP JUMP JUMPDEST PUSH0 PUSH2 0x4DB DUP4 DUP4 PUSH2 0x4B4 JUMP JUMPDEST SWAP2 POP DUP3 PUSH1 0x2 MUL DUP3 OR SWAP1 POP SWAP3 SWAP2 POP POP JUMP JUMPDEST PUSH2 0x4F4 DUP3 PUSH2 0x2B1 JUMP JUMPDEST PUSH8 0xFFFFFFFFFFFFFFFF DUP2 GT ISZERO PUSH2 0x50D JUMPI PUSH2 0x50C PUSH2 0x2BB JUMP JUMPDEST JUMPDEST PUSH2 0x517 DUP3 SLOAD PUSH2 0x315 JUMP JUMPDEST PUSH2 0x522 DUP3 DUP3 DUP6 PUSH2 0x462 JUMP JUMPDEST PUSH0 PUSH1 0x20 SWAP1 POP PUSH1 0x1F DUP4 GT PUSH1 0x1 DUP2 EQ PUSH2 0x553 JUMPI PUSH0 DUP5 ISZERO PUSH2 0x541 JUMPI DUP3 DUP8 ADD MLOAD SWAP1 POP JUMPDEST PUSH2 0x54B DUP6 DUP3 PUSH2 0x4D0 JUMP JUMPDEST DUP7 SSTORE POP PUSH2 0x5B2 JUMP JUMPDEST PUSH1 0x1F NOT DUP5 AND PUSH2 0x561 DUP7 PUSH2 0x345 JUMP JUMPDEST PUSH0 JUMPDEST DUP3 DUP2 LT ISZERO PUSH2 0x588 JUMPI DUP5 DUP10 ADD MLOAD DUP3 SSTORE PUSH1 0x1 DUP3 ADD SWAP2 POP PUSH1 0x20 DUP6 ADD SWAP5 POP PUSH1 0x20 DUP2 ADD SWAP1 POP PUSH2 0x563 JUMP JUMPDEST DUP7 DUP4 LT ISZERO PUSH2 0x5A5 JUMPI DUP5 DUP10 ADD MLOAD PUSH2 0x5A1 PUSH1 0x1F DUP10 AND DUP3 PUSH2 0x4B4 JUMP JUMPDEST DUP4 SSTORE POP JUMPDEST PUSH1 0x1 PUSH1 0x2 DUP9 MUL ADD DUP9 SSTORE POP POP POP JUMPDEST POP POP POP POP POP POP JUMP JUMPDEST PUSH2 0x5C3 DUP2 PUSH2 0x24B JUMP JUMPDEST DUP3 MSTORE POP POP JUMP JUMPDEST PUSH0 PUSH1 0x20 DUP3 ADD SWAP1 POP PUSH2 0x5DC PUSH0 DUP4 ADD DUP5 PUSH2 0x5BA JUMP JUMPDEST SWAP3 SWAP2 POP POP JUMP JUMPDEST PUSH2 0x2B1C DUP1 PUSH2 0x5EF PUSH0 CODECOPY PUSH0 RETURN INVALID PUSH1 0x80 PUSH1 0x40 MSTORE PUSH1 0x4 CALLDATASIZE LT PUSH2 0x13F JUMPI PUSH0 CALLDATALOAD PUSH1 0xE0 SHR DUP1 PUSH4 0x5C975ABB GT PUSH2 0xB5 JUMPI DUP1 PUSH4 0x95D89B41 GT PUSH2 0x6E JUMPI DUP1 PUSH4 0x95D89B41 EQ PUSH2 0x417 JUMPI DUP1 PUSH4 0xA22CB465 EQ PUSH2 0x441 JUMPI DUP1 PUSH4 0xB88D4FDE EQ PUSH2 0x469 JUMPI DUP1 PUSH4 0xC87B56DD EQ PUSH2 0x491 JUMPI DUP1 PUSH4 0xE985E9C5 EQ PUSH2 0x4CD JUMPI DUP1 PUSH4 0xF2FDE38B EQ PUSH2 0x509 JUMPI PUSH2 0x13F JUMP JUMPDEST DUP1 PUSH4 0x5C975ABB EQ PUSH2 0x31F JUMPI DUP1 PUSH4 0x6352211E EQ PUSH2 0x349 JUMPI DUP1 PUSH4 0x70A08231 EQ PUSH2 0x385 JUMPI DUP1 PUSH4 0x715018A6 EQ PUSH2 0x3C1 JUMPI DUP1 PUSH4 0x8456CB59 EQ PUSH2 0x3D7 JUMPI DUP1 PUSH4 0x8DA5CB5B EQ PUSH2 0x3ED JUMPI PUSH2 0x13F JUMP JUMPDEST DUP1 PUSH4 0x23B872DD GT PUSH2 0x107 JUMPI DUP1 PUSH4 0x23B872DD EQ PUSH2 0x237 JUMPI DUP1 PUSH4 0x26092B83 EQ PUSH2 0x25F JUMPI DUP1 PUSH4 0x2F745C59 EQ PUSH2 0x269 JUMPI DUP1 PUSH4 0x3F4BA83A EQ PUSH2 0x2A5 JUMPI DUP1 PUSH4 0x42842E0E EQ PUSH2 0x2BB JUMPI DUP1 PUSH4 0x4F6CCCE7 EQ PUSH2 0x2E3 JUMPI PUSH2 0x13F JUMP JUMPDEST DUP1 PUSH4 0x1FFC9A7 EQ PUSH2 0x143 JUMPI DUP1 PUSH4 0x6FDDE03 EQ PUSH2 0x17F JUMPI DUP1 PUSH4 0x81812FC EQ PUSH2 0x1A9 JUMPI DUP1 PUSH4 0x95EA7B3 EQ PUSH2 0x1E5 JUMPI DUP1 PUSH4 0x18160DDD EQ PUSH2 0x20D JUMPI JUMPDEST PUSH0 DUP1 REVERT JUMPDEST CALLVALUE DUP1 ISZERO PUSH2 0x14E JUMPI PUSH0 DUP1 REVERT JUMPDEST POP PUSH2 0x169 PUSH1 0x4 DUP1 CALLDATASIZE SUB DUP2 ADD SWAP1 PUSH2 0x164 SWAP2 SWAP1 PUSH2 0x21C0 JUMP JUMPDEST PUSH2 0x531 JUMP JUMPDEST PUSH1 0x40 MLOAD PUSH2 0x176 SWAP2 SWAP1 PUSH2 0x2205 JUMP JUMPDEST PUSH1 0x40 MLOAD DUP1 SWAP2 SUB SWAP1 RETURN JUMPDEST CALLVALUE DUP1 ISZERO PUSH2 0x18A JUMPI PUSH0 DUP1 REVERT JUMPDEST POP PUSH2 0x193 PUSH2 0x542 JUMP JUMPDEST PUSH1 0x40 MLOAD PUSH2 0x1A0 SWAP2 SWAP1 PUSH2 0x228E JUMP JUMPDEST PUSH1 0x40 MLOAD DUP1 SWAP2 SUB SWAP1 RETURN JUMPDEST CALLVALUE DUP1 ISZERO PUSH2 0x1B4 JUMPI PUSH0 DUP1 REVERT JUMPDEST POP PUSH2 0x1CF PUSH1 0x4 DUP1 CALLDATASIZE SUB DUP2 ADD SWAP1 PUSH2 0x1CA SWAP2 SWAP1 PUSH2 0x22E1 JUMP JUMPDEST PUSH2 0x5D1 JUMP JUMPDEST PUSH1 0x40 MLOAD PUSH2 0x1DC SWAP2 SWAP1 PUSH2 0x234B JUMP JUMPDEST PUSH1 0x40 MLOAD DUP1 SWAP2 SUB SWAP1 RETURN JUMPDEST CALLVALUE DUP1 ISZERO PUSH2 0x1F0 JUMPI PUSH0 DUP1 REVERT JUMPDEST POP PUSH2 0x20B PUSH1 0x4 DUP1 CALLDATASIZE SUB DUP2 ADD SWAP1 PUSH2 0x206 SWAP2 SWAP1 PUSH2 0x238E JUMP JUMPDEST PUSH2 0x5EC JUMP JUMPDEST STOP JUMPDEST CALLVALUE DUP1 ISZERO PUSH2 0x218 JUMPI PUSH0 DUP1 REVERT JUMPDEST POP PUSH2 0x221 PUSH2 0x602 JUMP JUMPDEST PUSH1 0x40 MLOAD PUSH2 0x22E SWAP2 SWAP1 PUSH2 0x23DB JUMP JUMPDEST PUSH1 0x40 MLOAD DUP1 SWAP2 SUB SWAP1 RETURN JUMPDEST CALLVALUE DUP1 ISZERO PUSH2 0x242 JUMPI PUSH0 DUP1 REVERT JUMPDEST POP PUSH2 0x25D PUSH1 0x4 DUP1 CALLDATASIZE SUB DUP2 ADD SWAP1 PUSH2 0x258 SWAP2 SWAP1 PUSH2 0x23F4 JUMP JUMPDEST PUSH2 0x60E JUMP JUMPDEST STOP JUMPDEST PUSH2 0x267 PUSH2 0x70D JUMP JUMPDEST STOP JUMPDEST CALLVALUE DUP1 ISZERO PUSH2 0x274 JUMPI PUSH0 DUP1 REVERT JUMPDEST POP PUSH2 0x28F PUSH1 0x4 DUP1 CALLDATASIZE SUB DUP2 ADD SWAP1 PUSH2 0x28A SWAP2 SWAP1 PUSH2 0x238E JUMP JUMPDEST PUSH2 0x7C7 JUMP JUMPDEST PUSH1 0x40 MLOAD PUSH2 0x29C SWAP2 SWAP1 PUSH2 0x23DB JUMP JUMPDEST PUSH1 0x40 MLOAD DUP1 SWAP2 SUB SWAP1 RETURN JUMPDEST CALLVALUE DUP1 ISZERO PUSH2 0x2B0 JUMPI PUSH0 DUP1 REVERT JUMPDEST POP PUSH2 0x2B9 PUSH2 0x86B JUMP JUMPDEST STOP JUMPDEST CALLVALUE DUP1 ISZERO PUSH2 0x2C6 JUMPI PUSH0 DUP1 REVERT JUMPDEST POP PUSH2 0x2E1 PUSH1 0x4 DUP1 CALLDATASIZE SUB DUP2 ADD SWAP1 PUSH2 0x2DC SWAP2 SWAP1 PUSH2 0x23F4 JUMP JUMPDEST PUSH2 0x87D JUMP JUMPDEST STOP JUMPDEST CALLVALUE DUP1 ISZERO PUSH2 0x2EE JUMPI PUSH0 DUP1 REVERT JUMPDEST POP PUSH2 0x309 PUSH1 0x4 DUP1 CALLDATASIZE SUB DUP2 ADD SWAP1 PUSH2 0x304 SWAP2 SWAP1 PUSH2 0x22E1 JUMP JUMPDEST PUSH2 0x89C JUMP JUMPDEST PUSH1 0x40 MLOAD PUSH2 0x316 SWAP2 SWAP1 PUSH2 0x23DB JUMP JUMPDEST PUSH1 0x40 MLOAD DUP1 SWAP2 SUB SWAP1 RETURN JUMPDEST CALLVALUE DUP1 ISZERO PUSH2 0x32A JUMPI PUSH0 DUP1 REVERT JUMPDEST POP PUSH2 0x333 PUSH2 0x90E JUMP JUMPDEST PUSH1 0x40 MLOAD PUSH2 0x340 SWAP2 SWAP1 PUSH2 0x2205 JUMP JUMPDEST PUSH1 0x40 MLOAD DUP1 SWAP2 SUB SWAP1 RETURN JUMPDEST CALLVALUE DUP1 ISZERO PUSH2 0x354 JUMPI PUSH0 DUP1 REVERT JUMPDEST POP PUSH2 0x36F PUSH1 0x4 DUP1 CALLDATASIZE SUB DUP2 ADD SWAP1 PUSH2 0x36A SWAP2 SWAP1 PUSH2 0x22E1 JUMP JUMPDEST PUSH2 0x923 JUMP JUMPDEST PUSH1 0x40 MLOAD PUSH2 0x37C SWAP2 SWAP1 PUSH2 0x234B JUMP JUMPDEST PUSH1 0x40 MLOAD DUP1 SWAP2 SUB SWAP1 RETURN JUMPDEST CALLVALUE DUP1 ISZERO PUSH2 0x390 JUMPI PUSH0 DUP1 REVERT JUMPDEST POP PUSH2 0x3AB PUSH1 0x4 DUP1 CALLDATASIZE SUB DUP2 ADD SWAP1 PUSH2 0x3A6 SWAP2 SWAP1 PUSH2 0x2444 JUMP JUMPDEST PUSH2 0x934 JUMP JUMPDEST PUSH1 0x40 MLOAD PUSH2 0x3B8 SWAP2 SWAP1 PUSH2 0x23DB JUMP JUMPDEST PUSH1 0x40 MLOAD DUP1 SWAP2 SUB SWAP1 RETURN JUMPDEST CALLVALUE DUP1 ISZERO PUSH2 0x3CC JUMPI PUSH0 DUP1 REVERT JUMPDEST POP PUSH2 0x3D5 PUSH2 0x9EA JUMP JUMPDEST STOP JUMPDEST CALLVALUE DUP1 ISZERO PUSH2 0x3E2 JUMPI PUSH0 DUP1 REVERT JUMPDEST POP PUSH2 0x3EB PUSH2 0x9FD JUMP JUMPDEST STOP JUMPDEST CALLVALUE DUP1 ISZERO PUSH2 0x3F8 JUMPI PUSH0 DUP1 REVERT JUMPDEST POP PUSH2 0x401 PUSH2 0xA0F JUMP JUMPDEST PUSH1 0x40 MLOAD PUSH2 0x40E SWAP2 SWAP1 PUSH2 0x234B JUMP JUMPDEST PUSH1 0x40 MLOAD DUP1 SWAP2 SUB SWAP1 RETURN JUMPDEST CALLVALUE DUP1 ISZERO PUSH2 0x422 JUMPI PUSH0 DUP1 REVERT JUMPDEST POP PUSH2 0x42B PUSH2 0xA38 JUMP JUMPDEST PUSH1 0x40 MLOAD PUSH2 0x438 SWAP2 SWAP1 PUSH2 0x228E JUMP JUMPDEST PUSH1 0x40 MLOAD DUP1 SWAP2 SUB SWAP1 RETURN JUMPDEST CALLVALUE DUP1 ISZERO PUSH2 0x44C JUMPI PUSH0 DUP1 REVERT JUMPDEST POP PUSH2 0x467 PUSH1 0x4 DUP1 CALLDATASIZE SUB DUP2 ADD SWAP1 PUSH2 0x462 SWAP2 SWAP1 PUSH2 0x2499 JUMP JUMPDEST PUSH2 0xAC8 JUMP JUMPDEST STOP JUMPDEST CALLVALUE DUP1 ISZERO PUSH2 0x474 JUMPI PUSH0 DUP1 REVERT JUMPDEST POP PUSH2 0x48F PUSH1 0x4 DUP1 CALLDATASIZE SUB DUP2 ADD SWAP1 PUSH2 0x48A SWAP2 SWAP1 PUSH2 0x2603 JUMP JUMPDEST PUSH2 0xADE JUMP JUMPDEST STOP JUMPDEST CALLVALUE DUP1 ISZERO PUSH2 0x49C JUMPI PUSH0 DUP1 REVERT JUMPDEST POP PUSH2 0x4B7 PUSH1 0x4 DUP1 CALLDATASIZE SUB DUP2 ADD SWAP1 PUSH2 0x4B2 SWAP2 SWAP1 PUSH2 0x22E1 JUMP JUMPDEST PUSH2 0xB03 JUMP JUMPDEST PUSH1 0x40 MLOAD PUSH2 0x4C4 SWAP2 SWAP1 PUSH2 0x228E JUMP JUMPDEST PUSH1 0x40 MLOAD DUP1 SWAP2 SUB SWAP1 RETURN JUMPDEST CALLVALUE DUP1 ISZERO PUSH2 0x4D8 JUMPI PUSH0 DUP1 REVERT JUMPDEST POP PUSH2 0x4F3 PUSH1 0x4 DUP1 CALLDATASIZE SUB DUP2 ADD SWAP1 PUSH2 0x4EE SWAP2 SWAP1 PUSH2 0x2683 JUMP JUMPDEST PUSH2 0xB69 JUMP JUMPDEST PUSH1 0x40 MLOAD PUSH2 0x500 SWAP2 SWAP1 PUSH2 0x2205 JUMP JUMPDEST PUSH1 0x40 MLOAD DUP1 SWAP2 SUB SWAP1 RETURN JUMPDEST CALLVALUE DUP1 ISZERO PUSH2 0x514 JUMPI PUSH0 DUP1 REVERT JUMPDEST POP PUSH2 0x52F PUSH1 0x4 DUP1 CALLDATASIZE SUB DUP2 ADD SWAP1 PUSH2 0x52A SWAP2 SWAP1 PUSH2 0x2444 JUMP JUMPDEST PUSH2 0xBF7 JUMP JUMPDEST STOP JUMPDEST PUSH0 PUSH2 0x53B DUP3 PUSH2 0xC7B JUMP JUMPDEST SWAP1 POP SWAP2 SWAP1 POP JUMP JUMPDEST PUSH1 0x60 PUSH0 DUP1 SLOAD PUSH2 0x550 SWAP1 PUSH2 0x26EE JUMP JUMPDEST DUP1 PUSH1 0x1F ADD PUSH1 0x20 DUP1 SWAP2 DIV MUL PUSH1 0x20 ADD PUSH1 0x40 MLOAD SWAP1 DUP2 ADD PUSH1 0x40 MSTORE DUP1 SWAP3 SWAP2 SWAP1 DUP2 DUP2 MSTORE PUSH1 0x20 ADD DUP3 DUP1 SLOAD PUSH2 0x57C SWAP1 PUSH2 0x26EE JUMP JUMPDEST DUP1 ISZERO PUSH2 0x5C7 JUMPI DUP1 PUSH1 0x1F LT PUSH2 0x59E JUMPI PUSH2 0x100 DUP1 DUP4 SLOAD DIV MUL DUP4 MSTORE SWAP2 PUSH1 0x20 ADD SWAP2 PUSH2 0x5C7 JUMP JUMPDEST DUP3 ADD SWAP2 SWAP1 PUSH0 MSTORE PUSH1 0x20 PUSH0 KECCAK256 SWAP1 JUMPDEST DUP2 SLOAD DUP2 MSTORE SWAP1 PUSH1 0x1 ADD SWAP1 PUSH1 0x20 ADD DUP1 DUP4 GT PUSH2 0x5AA JUMPI DUP3 SWAP1 SUB PUSH1 0x1F AND DUP3 ADD SWAP2 JUMPDEST POP POP POP POP POP SWAP1 POP SWAP1 JUMP JUMPDEST PUSH0 PUSH2 0x5DB DUP3 PUSH2 0xCF4 JUMP JUMPDEST POP PUSH2 0x5E5 DUP3 PUSH2 0xD7A JUMP JUMPDEST SWAP1 POP SWAP2 SWAP1 POP JUMP JUMPDEST PUSH2 0x5FE DUP3 DUP3 PUSH2 0x5F9 PUSH2 0xDB3 JUMP JUMPDEST PUSH2 0xDBA JUMP JUMPDEST POP POP JUMP JUMPDEST PUSH0 PUSH1 0x8 DUP1 SLOAD SWAP1 POP SWAP1 POP SWAP1 JUMP JUMPDEST PUSH0 PUSH20 0xFFFFFFFFFFFFFFFFFFFFFFFFFFFFFFFFFFFFFFFF AND DUP3 PUSH20 0xFFFFFFFFFFFFFFFFFFFFFFFFFFFFFFFFFFFFFFFF AND SUB PUSH2 0x67E JUMPI PUSH0 PUSH1 0x40 MLOAD PUSH32 0x64A0AE9200000000000000000000000000000000000000000000000000000000 DUP2 MSTORE PUSH1 0x4 ADD PUSH2 0x675 SWAP2 SWAP1 PUSH2 0x234B JUMP JUMPDEST PUSH1 0x40 MLOAD DUP1 SWAP2 SUB SWAP1 REVERT JUMPDEST PUSH0 PUSH2 0x691 DUP4 DUP4 PUSH2 0x68C PUSH2 0xDB3 JUMP JUMPDEST PUSH2 0xDCC JUMP JUMPDEST SWAP1 POP DUP4 PUSH20 0xFFFFFFFFFFFFFFFFFFFFFFFFFFFFFFFFFFFFFFFF AND DUP2 PUSH20 0xFFFFFFFFFFFFFFFFFFFFFFFFFFFFFFFFFFFFFFFF AND EQ PUSH2 0x707 JUMPI DUP4 DUP3 DUP3 PUSH1 0x40 MLOAD PUSH32 0x64283D7B00000000000000000000000000000000000000000000000000000000 DUP2 MSTORE PUSH1 0x4 ADD PUSH2 0x6FE SWAP4 SWAP3 SWAP2 SWAP1 PUSH2 0x271E JUMP JUMPDEST PUSH1 0x40 MLOAD DUP1 SWAP2 SUB SWAP1 REVERT JUMPDEST POP POP POP POP JUMP JUMPDEST PUSH7 0x2386F26FC10000 CALLVALUE EQ PUSH2 0x756 JUMPI PUSH1 0x40 MLOAD PUSH32 0x8C379A000000000000000000000000000000000000000000000000000000000 DUP2 MSTORE PUSH1 0x4 ADD PUSH2 0x74D SWAP1 PUSH2 0x279D JUMP JUMPDEST PUSH1 0x40 MLOAD DUP1 SWAP2 SUB SWAP1 REVERT JUMPDEST PUSH1 0xC SLOAD PUSH2 0x761 PUSH2 0x602 JUMP JUMPDEST LT PUSH2 0x7A1 JUMPI PUSH1 0x40 MLOAD PUSH32 0x8C379A000000000000000000000000000000000000000000000000000000000 DUP2 MSTORE PUSH1 0x4 ADD PUSH2 0x798 SWAP1 PUSH2 0x2805 JUMP JUMPDEST PUSH1 0x40 MLOAD DUP1 SWAP2 SUB SWAP1 REVERT JUMPDEST PUSH0 PUSH1 0xB PUSH0 DUP2 SLOAD DUP1 SWAP3 SWAP2 SWAP1 PUSH2 0x7B4 SWAP1 PUSH2 0x2850 JUMP JUMPDEST SWAP2 SWAP1 POP SSTORE SWAP1 POP PUSH2 0x7C4 CALLER DUP3 PUSH2 0xDE1 JUMP JUMPDEST POP JUMP JUMPDEST PUSH0 PUSH2 0x7D1 DUP4 PUSH2 0x934 JUMP JUMPDEST DUP3 LT PUSH2 0x816 JUMPI DUP3 DUP3 PUSH1 0x40 MLOAD PUSH32 0xA57D13DC00000000000000000000000000000000000000000000000000000000 DUP2 MSTORE PUSH1 0x4 ADD PUSH2 0x80D SWAP3 SWAP2 SWAP1 PUSH2 0x2897 JUMP JUMPDEST PUSH1 0x40 MLOAD DUP1 SWAP2 SUB SWAP1 REVERT JUMPDEST PUSH1 0x6 PUSH0 DUP5 PUSH20 0xFFFFFFFFFFFFFFFFFFFFFFFFFFFFFFFFFFFFFFFF AND PUSH20 0xFFFFFFFFFFFFFFFFFFFFFFFFFFFFFFFFFFFFFFFF AND DUP2 MSTORE PUSH1 0x20 ADD SWAP1 DUP2 MSTORE PUSH1 0x20 ADD PUSH0 KECCAK256 PUSH0 DUP4 DUP2 MSTORE PUSH1 0x20 ADD SWAP1 DUP2 MSTORE PUSH1 0x20 ADD PUSH0 KECCAK256 SLOAD SWAP1 POP SWAP3 SWAP2 POP POP JUMP JUMPDEST PUSH2 0x873 PUSH2 0xDFE JUMP JUMPDEST PUSH2 0x87B PUSH2 0xE85 JUMP JUMPDEST JUMP JUMPDEST PUSH2 0x897 DUP4 DUP4 DUP4 PUSH1 0x40 MLOAD DUP1 PUSH1 0x20 ADD PUSH1 0x40 MSTORE DUP1 PUSH0 DUP2 MSTORE POP PUSH2 0xADE JUMP JUMPDEST POP POP POP JUMP JUMPDEST PUSH0 PUSH2 0x8A5 PUSH2 0x602 JUMP JUMPDEST DUP3 LT PUSH2 0x8EA JUMPI PUSH0 DUP3 PUSH1 0x40 MLOAD PUSH32 0xA57D13DC00000000000000000000000000000000000000000000000000000000 DUP2 MSTORE PUSH1 0x4 ADD PUSH2 0x8E1 SWAP3 SWAP2 SWAP1 PUSH2 0x2897 JUMP JUMPDEST PUSH1 0x40 MLOAD DUP1 SWAP2 SUB SWAP1 REVERT JUMPDEST PUSH1 0x8 DUP3 DUP2 SLOAD DUP2 LT PUSH2 0x8FE JUMPI PUSH2 0x8FD PUSH2 0x28BE JUMP JUMPDEST JUMPDEST SWAP1 PUSH0 MSTORE PUSH1 0x20 PUSH0 KECCAK256 ADD SLOAD SWAP1 POP SWAP2 SWAP1 POP JUMP JUMPDEST PUSH0 PUSH1 0xA PUSH0 SWAP1 SLOAD SWAP1 PUSH2 0x100 EXP SWAP1 DIV PUSH1 0xFF AND SWAP1 POP SWAP1 JUMP JUMPDEST PUSH0 PUSH2 0x92D DUP3 PUSH2 0xCF4 JUMP JUMPDEST SWAP1 POP SWAP2 SWAP1 POP JUMP JUMPDEST PUSH0 DUP1 PUSH20 0xFFFFFFFFFFFFFFFFFFFFFFFFFFFFFFFFFFFFFFFF AND DUP3 PUSH20 0xFFFFFFFFFFFFFFFFFFFFFFFFFFFFFFFFFFFFFFFF AND SUB PUSH2 0x9A5 JUMPI PUSH0 PUSH1 0x40 MLOAD PUSH32 0x89C62B6400000000000000000000000000000000000000000000000000000000 DUP2 MSTORE PUSH1 0x4 ADD PUSH2 0x99C SWAP2 SWAP1 PUSH2 0x234B JUMP JUMPDEST PUSH1 0x40 MLOAD DUP1 SWAP2 SUB SWAP1 REVERT JUMPDEST PUSH1 0x3 PUSH0 DUP4 PUSH20 0xFFFFFFFFFFFFFFFFFFFFFFFFFFFFFFFFFFFFFFFF AND PUSH20 0xFFFFFFFFFFFFFFFFFFFFFFFFFFFFFFFFFFFFFFFF AND DUP2 MSTORE PUSH1 0x20 ADD SWAP1 DUP2 MSTORE PUSH1 0x20 ADD PUSH0 KECCAK256 SLOAD SWAP1 POP SWAP2 SWAP1 POP JUMP JUMPDEST PUSH2 0x9F2 PUSH2 0xDFE JUMP JUMPDEST PUSH2 0x9FB PUSH0 PUSH2 0xEE6 JUMP JUMPDEST JUMP JUMPDEST PUSH2 0xA05 PUSH2 0xDFE JUMP JUMPDEST PUSH2 0xA0D PUSH2 0xFAB JUMP JUMPDEST JUMP JUMPDEST PUSH0 PUSH1 0xA PUSH1 0x1 SWAP1 SLOAD SWAP1 PUSH2 0x100 EXP SWAP1 DIV PUSH20 0xFFFFFFFFFFFFFFFFFFFFFFFFFFFFFFFFFFFFFFFF AND SWAP1 POP SWAP1 JUMP JUMPDEST PUSH1 0x60 PUSH1 0x1 DUP1 SLOAD PUSH2 0xA47 SWAP1 PUSH2 0x26EE JUMP JUMPDEST DUP1 PUSH1 0x1F ADD PUSH1 0x20 DUP1 SWAP2 DIV MUL PUSH1 0x20 ADD PUSH1 0x40 MLOAD SWAP1 DUP2 ADD PUSH1 0x40 MSTORE DUP1 SWAP3 SWAP2 SWAP1 DUP2 DUP2 MSTORE PUSH1 0x20 ADD DUP3 DUP1 SLOAD PUSH2 0xA73 SWAP1 PUSH2 0x26EE JUMP JUMPDEST DUP1 ISZERO PUSH2 0xABE JUMPI DUP1 PUSH1 0x1F LT PUSH2 0xA95 JUMPI PUSH2 0x100 DUP1 DUP4 SLOAD DIV MUL DUP4 MSTORE SWAP2 PUSH1 0x20 ADD SWAP2 PUSH2 0xABE JUMP JUMPDEST DUP3 ADD SWAP2 SWAP1 PUSH0 MSTORE PUSH1 0x20 PUSH0 KECCAK256 SWAP1 JUMPDEST DUP2 SLOAD DUP2 MSTORE SWAP1 PUSH1 0x1 ADD SWAP1 PUSH1 0x20 ADD DUP1 DUP4 GT PUSH2 0xAA1 JUMPI DUP3 SWAP1 SUB PUSH1 0x1F AND DUP3 ADD SWAP2 JUMPDEST POP POP POP POP POP SWAP1 POP SWAP1 JUMP JUMPDEST PUSH2 0xADA PUSH2 0xAD3 PUSH2 0xDB3 JUMP JUMPDEST DUP4 DUP4 PUSH2 0x100D JUMP JUMPDEST POP POP JUMP JUMPDEST PUSH2 0xAE9 DUP5 DUP5 DUP5 PUSH2 0x60E JUMP JUMPDEST PUSH2 0xAFD PUSH2 0xAF4 PUSH2 0xDB3 JUMP JUMPDEST DUP6 DUP6 DUP6 DUP6 PUSH2 0x1176 JUMP JUMPDEST POP POP POP POP JUMP JUMPDEST PUSH1 0x60 PUSH2 0xB0E DUP3 PUSH2 0xCF4 JUMP JUMPDEST POP PUSH0 PUSH2 0xB18 PUSH2 0x1322 JUMP JUMPDEST SWAP1 POP PUSH0 DUP2 MLOAD GT PUSH2 0xB36 JUMPI PUSH1 0x40 MLOAD DUP1 PUSH1 0x20 ADD PUSH1 0x40 MSTORE DUP1 PUSH0 DUP2 MSTORE POP PUSH2 0xB61 JUMP JUMPDEST DUP1 PUSH2 0xB40 DUP5 PUSH2 0x1342 JUMP JUMPDEST PUSH1 0x40 MLOAD PUSH1 0x20 ADD PUSH2 0xB51 SWAP3 SWAP2 SWAP1 PUSH2 0x2925 JUMP JUMPDEST PUSH1 0x40 MLOAD PUSH1 0x20 DUP2 DUP4 SUB SUB DUP2 MSTORE SWAP1 PUSH1 0x40 MSTORE JUMPDEST SWAP2 POP POP SWAP2 SWAP1 POP JUMP JUMPDEST PUSH0 PUSH1 0x5 PUSH0 DUP5 PUSH20 0xFFFFFFFFFFFFFFFFFFFFFFFFFFFFFFFFFFFFFFFF AND PUSH20 0xFFFFFFFFFFFFFFFFFFFFFFFFFFFFFFFFFFFFFFFF AND DUP2 MSTORE PUSH1 0x20 ADD SWAP1 DUP2 MSTORE PUSH1 0x20 ADD PUSH0 KECCAK256 PUSH0 DUP4 PUSH20 0xFFFFFFFFFFFFFFFFFFFFFFFFFFFFFFFFFFFFFFFF AND PUSH20 0xFFFFFFFFFFFFFFFFFFFFFFFFFFFFFFFFFFFFFFFF AND DUP2 MSTORE PUSH1 0x20 ADD SWAP1 DUP2 MSTORE PUSH1 0x20 ADD PUSH0 KECCAK256 PUSH0 SWAP1 SLOAD SWAP1 PUSH2 0x100 EXP SWAP1 DIV PUSH1 0xFF AND SWAP1 POP SWAP3 SWAP2 POP POP JUMP JUMPDEST PUSH2 0xBFF PUSH2 0xDFE JUMP JUMPDEST PUSH0 PUSH20 0xFFFFFFFFFFFFFFFFFFFFFFFFFFFFFFFFFFFFFFFF AND DUP2 PUSH20 0xFFFFFFFFFFFFFFFFFFFFFFFFFFFFFFFFFFFFFFFF AND SUB PUSH2 0xC6F JUMPI PUSH0 PUSH1 0x40 MLOAD PUSH32 0x1E4FBDF700000000000000000000000000000000000000000000000000000000 DUP2 MSTORE PUSH1 0x4 ADD PUSH2 0xC66 SWAP2 SWAP1 PUSH2 0x234B JUMP JUMPDEST PUSH1 0x40 MLOAD DUP1 SWAP2 SUB SWAP1 REVERT JUMPDEST PUSH2 0xC78 DUP2 PUSH2 0xEE6 JUMP JUMPDEST POP JUMP JUMPDEST PUSH0 PUSH32 0x780E9D6300000000000000000000000000000000000000000000000000000000 PUSH28 0xFFFFFFFFFFFFFFFFFFFFFFFFFFFFFFFFFFFFFFFFFFFFFFFFFFFFFFFF NOT AND DUP3 PUSH28 0xFFFFFFFFFFFFFFFFFFFFFFFFFFFFFFFFFFFFFFFFFFFFFFFFFFFFFFFF NOT AND EQ DUP1 PUSH2 0xCED JUMPI POP PUSH2 0xCEC DUP3 PUSH2 0x140C JUMP JUMPDEST JUMPDEST SWAP1 POP SWAP2 SWAP1 POP JUMP JUMPDEST PUSH0 DUP1 PUSH2 0xCFF DUP4 PUSH2 0x14ED JUMP JUMPDEST SWAP1 POP PUSH0 PUSH20 0xFFFFFFFFFFFFFFFFFFFFFFFFFFFFFFFFFFFFFFFF AND DUP2 PUSH20 0xFFFFFFFFFFFFFFFFFFFFFFFFFFFFFFFFFFFFFFFF AND SUB PUSH2 0xD71 JUMPI DUP3 PUSH1 0x40 MLOAD PUSH32 0x7E27328900000000000000000000000000000000000000000000000000000000 DUP2 MSTORE PUSH1 0x4 ADD PUSH2 0xD68 SWAP2 SWAP1 PUSH2 0x23DB JUMP JUMPDEST PUSH1 0x40 MLOAD DUP1 SWAP2 SUB SWAP1 REVERT JUMPDEST DUP1 SWAP2 POP POP SWAP2 SWAP1 POP JUMP JUMPDEST PUSH0 PUSH1 0x4 PUSH0 DUP4 DUP2 MSTORE PUSH1 0x20 ADD SWAP1 DUP2 MSTORE PUSH1 0x20 ADD PUSH0 KECCAK256 PUSH0 SWAP1 SLOAD SWAP1 PUSH2 0x100 EXP SWAP1 DIV PUSH20 0xFFFFFFFFFFFFFFFFFFFFFFFFFFFFFFFFFFFFFFFF AND SWAP1 POP SWAP2 SWAP1 POP JUMP JUMPDEST PUSH0 CALLER SWAP1 POP SWAP1 JUMP JUMPDEST PUSH2 0xDC7 DUP4 DUP4 DUP4 PUSH1 0x1 PUSH2 0x1526 JUMP JUMPDEST POP POP POP JUMP JUMPDEST PUSH0 PUSH2 0xDD8 DUP5 DUP5 DUP5 PUSH2 0x16E5 JUMP JUMPDEST SWAP1 POP SWAP4 SWAP3 POP POP POP JUMP JUMPDEST PUSH2 0xDFA DUP3 DUP3 PUSH1 0x40 MLOAD DUP1 PUSH1 0x20 ADD PUSH1 0x40 MSTORE DUP1 PUSH0 DUP2 MSTORE POP PUSH2 0x1702 JUMP JUMPDEST POP POP JUMP JUMPDEST PUSH2 0xE06 PUSH2 0xDB3 JUMP JUMPDEST PUSH20 0xFFFFFFFFFFFFFFFFFFFFFFFFFFFFFFFFFFFFFFFF AND PUSH2 0xE24 PUSH2 0xA0F JUMP JUMPDEST PUSH20 0xFFFFFFFFFFFFFFFFFFFFFFFFFFFFFFFFFFFFFFFF AND EQ PUSH2 0xE83 JUMPI PUSH2 0xE47 PUSH2 0xDB3 JUMP JUMPDEST PUSH1 0x40 MLOAD PUSH32 0x118CDAA700000000000000000000000000000000000000000000000000000000 DUP2 MSTORE PUSH1 0x4 ADD PUSH2 0xE7A SWAP2 SWAP1 PUSH2 0x234B JUMP JUMPDEST PUSH1 0x40 MLOAD DUP1 SWAP2 SUB SWAP1 REVERT JUMPDEST JUMP JUMPDEST PUSH2 0xE8D PUSH2 0x1725 JUMP JUMPDEST PUSH0 PUSH1 0xA PUSH0 PUSH2 0x100 EXP DUP2 SLOAD DUP2 PUSH1 0xFF MUL NOT AND SWAP1 DUP4 ISZERO ISZERO MUL OR SWAP1 SSTORE POP PUSH32 0x5DB9EE0A495BF2E6FF9C91A7834C1BA4FDD244A5E8AA4E537BD38AEAE4B073AA PUSH2 0xECF PUSH2 0xDB3 JUMP JUMPDEST PUSH1 0x40 MLOAD PUSH2 0xEDC SWAP2 SWAP1 PUSH2 0x234B JUMP JUMPDEST PUSH1 0x40 MLOAD DUP1 SWAP2 SUB SWAP1 LOG1 JUMP JUMPDEST PUSH0 PUSH1 0xA PUSH1 0x1 SWAP1 SLOAD SWAP1 PUSH2 0x100 EXP SWAP1 DIV PUSH20 0xFFFFFFFFFFFFFFFFFFFFFFFFFFFFFFFFFFFFFFFF AND SWAP1 POP DUP2 PUSH1 0xA PUSH1 0x1 PUSH2 0x100 EXP DUP2 SLOAD DUP2 PUSH20 0xFFFFFFFFFFFFFFFFFFFFFFFFFFFFFFFFFFFFFFFF MUL NOT AND SWAP1 DUP4 PUSH20 0xFFFFFFFFFFFFFFFFFFFFFFFFFFFFFFFFFFFFFFFF AND MUL OR SWAP1 SSTORE POP DUP2 PUSH20 0xFFFFFFFFFFFFFFFFFFFFFFFFFFFFFFFFFFFFFFFF AND DUP2 PUSH20 0xFFFFFFFFFFFFFFFFFFFFFFFFFFFFFFFFFFFFFFFF AND PUSH32 0x8BE0079C531659141344CD1FD0A4F28419497F9722A3DAAFE3B4186F6B6457E0 PUSH1 0x40 MLOAD PUSH1 0x40 MLOAD DUP1 SWAP2 SUB SWAP1 LOG3 POP POP JUMP JUMPDEST PUSH2 0xFB3 PUSH2 0x1765 JUMP JUMPDEST PUSH1 0x1 PUSH1 0xA PUSH0 PUSH2 0x100 EXP DUP2 SLOAD DUP2 PUSH1 0xFF MUL NOT AND SWAP1 DUP4 ISZERO ISZERO MUL OR SWAP1 SSTORE POP PUSH32 0x62E78CEA01BEE320CD4E420270B5EA74000D11B0C9F74754EBDBFC544B05A258 PUSH2 0xFF6 PUSH2 0xDB3 JUMP JUMPDEST PUSH1 0x40 MLOAD PUSH2 0x1003 SWAP2 SWAP1 PUSH2 0x234B JUMP JUMPDEST PUSH1 0x40 MLOAD DUP1 SWAP2 SUB SWAP1 LOG1 JUMP JUMPDEST PUSH0 PUSH20 0xFFFFFFFFFFFFFFFFFFFFFFFFFFFFFFFFFFFFFFFF AND DUP3 PUSH20 0xFFFFFFFFFFFFFFFFFFFFFFFFFFFFFFFFFFFFFFFF AND SUB PUSH2 0x107D JUMPI DUP2 PUSH1 0x40 MLOAD PUSH32 0x5B08BA1800000000000000000000000000000000000000000000000000000000 DUP2 MSTORE PUSH1 0x4 ADD PUSH2 0x1074 SWAP2 SWAP1 PUSH2 0x234B JUMP JUMPDEST PUSH1 0x40 MLOAD DUP1 SWAP2 SUB SWAP1 REVERT JUMPDEST DUP1 PUSH1 0x5 PUSH0 DUP6 PUSH20 0xFFFFFFFFFFFFFFFFFFFFFFFFFFFFFFFFFFFFFFFF AND PUSH20 0xFFFFFFFFFFFFFFFFFFFFFFFFFFFFFFFFFFFFFFFF AND DUP2 MSTORE PUSH1 0x20 ADD SWAP1 DUP2 MSTORE PUSH1 0x20 ADD PUSH0 KECCAK256 PUSH0 DUP5 PUSH20 0xFFFFFFFFFFFFFFFFFFFFFFFFFFFFFFFFFFFFFFFF AND PUSH20 0xFFFFFFFFFFFFFFFFFFFFFFFFFFFFFFFFFFFFFFFF AND DUP2 MSTORE PUSH1 0x20 ADD SWAP1 DUP2 MSTORE PUSH1 0x20 ADD PUSH0 KECCAK256 PUSH0 PUSH2 0x100 EXP DUP2 SLOAD DUP2 PUSH1 0xFF MUL NOT AND SWAP1 DUP4 ISZERO ISZERO MUL OR SWAP1 SSTORE POP DUP2 PUSH20 0xFFFFFFFFFFFFFFFFFFFFFFFFFFFFFFFFFFFFFFFF AND DUP4 PUSH20 0xFFFFFFFFFFFFFFFFFFFFFFFFFFFFFFFFFFFFFFFF AND PUSH32 0x17307EAB39AB6107E8899845AD3D59BD9653F200F220920489CA2B5937696C31 DUP4 PUSH1 0x40 MLOAD PUSH2 0x1169 SWAP2 SWAP1 PUSH2 0x2205 JUMP JUMPDEST PUSH1 0x40 MLOAD DUP1 SWAP2 SUB SWAP1 LOG3 POP POP POP JUMP JUMPDEST PUSH0 DUP4 PUSH20 0xFFFFFFFFFFFFFFFFFFFFFFFFFFFFFFFFFFFFFFFF AND EXTCODESIZE GT ISZERO PUSH2 0x131B JUMPI DUP3 PUSH20 0xFFFFFFFFFFFFFFFFFFFFFFFFFFFFFFFFFFFFFFFF AND PUSH4 0x150B7A02 DUP7 DUP7 DUP6 DUP6 PUSH1 0x40 MLOAD DUP6 PUSH4 0xFFFFFFFF AND PUSH1 0xE0 SHL DUP2 MSTORE PUSH1 0x4 ADD PUSH2 0x11D4 SWAP5 SWAP4 SWAP3 SWAP2 SWAP1 PUSH2 0x299A JUMP JUMPDEST PUSH1 0x20 PUSH1 0x40 MLOAD DUP1 DUP4 SUB DUP2 PUSH0 DUP8 GAS CALL SWAP3 POP POP POP DUP1 ISZERO PUSH2 0x120F JUMPI POP PUSH1 0x40 MLOAD RETURNDATASIZE PUSH1 0x1F NOT PUSH1 0x1F DUP3 ADD AND DUP3 ADD DUP1 PUSH1 0x40 MSTORE POP DUP2 ADD SWAP1 PUSH2 0x120C SWAP2 SWAP1 PUSH2 0x29F8 JUMP JUMPDEST PUSH1 0x1 JUMPDEST PUSH2 0x1290 JUMPI RETURNDATASIZE DUP1 PUSH0 DUP2 EQ PUSH2 0x123D JUMPI PUSH1 0x40 MLOAD SWAP2 POP PUSH1 0x1F NOT PUSH1 0x3F RETURNDATASIZE ADD AND DUP3 ADD PUSH1 0x40 MSTORE RETURNDATASIZE DUP3 MSTORE RETURNDATASIZE PUSH0 PUSH1 0x20 DUP5 ADD RETURNDATACOPY PUSH2 0x1242 JUMP JUMPDEST PUSH1 0x60 SWAP2 POP JUMPDEST POP PUSH0 DUP2 MLOAD SUB PUSH2 0x1288 JUMPI DUP4 PUSH1 0x40 MLOAD PUSH32 0x64A0AE9200000000000000000000000000000000000000000000000000000000 DUP2 MSTORE PUSH1 0x4 ADD PUSH2 0x127F SWAP2 SWAP1 PUSH2 0x234B JUMP JUMPDEST PUSH1 0x40 MLOAD DUP1 SWAP2 SUB SWAP1 REVERT JUMPDEST DUP1 MLOAD DUP2 PUSH1 0x20 ADD REVERT JUMPDEST PUSH4 0x150B7A02 PUSH1 0xE0 SHL PUSH28 0xFFFFFFFFFFFFFFFFFFFFFFFFFFFFFFFFFFFFFFFFFFFFFFFFFFFFFFFF NOT AND DUP2 PUSH28 0xFFFFFFFFFFFFFFFFFFFFFFFFFFFFFFFFFFFFFFFFFFFFFFFFFFFFFFFF NOT AND EQ PUSH2 0x1319 JUMPI DUP4 PUSH1 0x40 MLOAD PUSH32 0x64A0AE9200000000000000000000000000000000000000000000000000000000 DUP2 MSTORE PUSH1 0x4 ADD PUSH2 0x1310 SWAP2 SWAP1 PUSH2 0x234B JUMP JUMPDEST PUSH1 0x40 MLOAD DUP1 SWAP2 SUB SWAP1 REVERT JUMPDEST POP JUMPDEST POP POP POP POP POP JUMP JUMPDEST PUSH1 0x60 PUSH1 0x40 MLOAD DUP1 PUSH1 0x60 ADD PUSH1 0x40 MSTORE DUP1 PUSH1 0x36 DUP2 MSTORE PUSH1 0x20 ADD PUSH2 0x2AB1 PUSH1 0x36 SWAP2 CODECOPY SWAP1 POP SWAP1 JUMP JUMPDEST PUSH1 0x60 PUSH0 PUSH1 0x1 PUSH2 0x1350 DUP5 PUSH2 0x17A6 JUMP JUMPDEST ADD SWAP1 POP PUSH0 DUP2 PUSH8 0xFFFFFFFFFFFFFFFF DUP2 GT ISZERO PUSH2 0x136E JUMPI PUSH2 0x136D PUSH2 0x24DF JUMP JUMPDEST JUMPDEST PUSH1 0x40 MLOAD SWAP1 DUP1 DUP3 MSTORE DUP1 PUSH1 0x1F ADD PUSH1 0x1F NOT AND PUSH1 0x20 ADD DUP3 ADD PUSH1 0x40 MSTORE DUP1 ISZERO PUSH2 0x13A0 JUMPI DUP2 PUSH1 0x20 ADD PUSH1 0x1 DUP3 MUL DUP1 CALLDATASIZE DUP4 CALLDATACOPY DUP1 DUP3 ADD SWAP2 POP POP SWAP1 POP JUMPDEST POP SWAP1 POP PUSH0 DUP3 PUSH1 0x20 ADD DUP3 ADD SWAP1 POP JUMPDEST PUSH1 0x1 ISZERO PUSH2 0x1401 JUMPI DUP1 DUP1 PUSH1 0x1 SWAP1 SUB SWAP2 POP POP PUSH32 0x3031323334353637383961626364656600000000000000000000000000000000 PUSH1 0xA DUP7 MOD BYTE DUP2 MSTORE8 PUSH1 0xA DUP6 DUP2 PUSH2 0x13F6 JUMPI PUSH2 0x13F5 PUSH2 0x2A23 JUMP JUMPDEST JUMPDEST DIV SWAP5 POP PUSH0 DUP6 SUB PUSH2 0x13AD JUMPI JUMPDEST DUP2 SWAP4 POP POP POP POP SWAP2 SWAP1 POP JUMP JUMPDEST PUSH0 PUSH32 0x80AC58CD00000000000000000000000000000000000000000000000000000000 PUSH28 0xFFFFFFFFFFFFFFFFFFFFFFFFFFFFFFFFFFFFFFFFFFFFFFFFFFFFFFFF NOT AND DUP3 PUSH28 0xFFFFFFFFFFFFFFFFFFFFFFFFFFFFFFFFFFFFFFFFFFFFFFFFFFFFFFFF NOT AND EQ DUP1 PUSH2 0x14D6 JUMPI POP PUSH32 0x5B5E139F00000000000000000000000000000000000000000000000000000000 PUSH28 0xFFFFFFFFFFFFFFFFFFFFFFFFFFFFFFFFFFFFFFFFFFFFFFFFFFFFFFFF NOT AND DUP3 PUSH28 0xFFFFFFFFFFFFFFFFFFFFFFFFFFFFFFFFFFFFFFFFFFFFFFFFFFFFFFFF NOT AND EQ JUMPDEST DUP1 PUSH2 0x14E6 JUMPI POP PUSH2 0x14E5 DUP3 PUSH2 0x18F7 JUMP JUMPDEST JUMPDEST SWAP1 POP SWAP2 SWAP1 POP JUMP JUMPDEST PUSH0 PUSH1 0x2 PUSH0 DUP4 DUP2 MSTORE PUSH1 0x20 ADD SWAP1 DUP2 MSTORE PUSH1 0x20 ADD PUSH0 KECCAK256 PUSH0 SWAP1 SLOAD SWAP1 PUSH2 0x100 EXP SWAP1 DIV PUSH20 0xFFFFFFFFFFFFFFFFFFFFFFFFFFFFFFFFFFFFFFFF AND SWAP1 POP SWAP2 SWAP1 POP JUMP JUMPDEST DUP1 DUP1 PUSH2 0x155E JUMPI POP PUSH0 PUSH20 0xFFFFFFFFFFFFFFFFFFFFFFFFFFFFFFFFFFFFFFFF AND DUP3 PUSH20 0xFFFFFFFFFFFFFFFFFFFFFFFFFFFFFFFFFFFFFFFF AND EQ ISZERO JUMPDEST ISZERO PUSH2 0x1690 JUMPI PUSH0 PUSH2 0x156D DUP5 PUSH2 0xCF4 JUMP JUMPDEST SWAP1 POP PUSH0 PUSH20 0xFFFFFFFFFFFFFFFFFFFFFFFFFFFFFFFFFFFFFFFF AND DUP4 PUSH20 0xFFFFFFFFFFFFFFFFFFFFFFFFFFFFFFFFFFFFFFFF AND EQ ISZERO DUP1 ISZERO PUSH2 0x15D7 JUMPI POP DUP3 PUSH20 0xFFFFFFFFFFFFFFFFFFFFFFFFFFFFFFFFFFFFFFFF AND DUP2 PUSH20 0xFFFFFFFFFFFFFFFFFFFFFFFFFFFFFFFFFFFFFFFF AND EQ ISZERO JUMPDEST DUP1 ISZERO PUSH2 0x15EA JUMPI POP PUSH2 0x15E8 DUP2 DUP5 PUSH2 0xB69 JUMP JUMPDEST ISZERO JUMPDEST ISZERO PUSH2 0x162C JUMPI DUP3 PUSH1 0x40 MLOAD PUSH32 0xA9FBF51F00000000000000000000000000000000000000000000000000000000 DUP2 MSTORE PUSH1 0x4 ADD PUSH2 0x1623 SWAP2 SWAP1 PUSH2 0x234B JUMP JUMPDEST PUSH1 0x40 MLOAD DUP1 SWAP2 SUB SWAP1 REVERT JUMPDEST DUP2 ISZERO PUSH2 0x168E JUMPI DUP4 DUP6 PUSH20 0xFFFFFFFFFFFFFFFFFFFFFFFFFFFFFFFFFFFFFFFF AND DUP3 PUSH20 0xFFFFFFFFFFFFFFFFFFFFFFFFFFFFFFFFFFFFFFFF AND PUSH32 0x8C5BE1E5EBEC7D5BD14F71427D1E84F3DD0314C0F7B2291E5B200AC8C7C3B925 PUSH1 0x40 MLOAD PUSH1 0x40 MLOAD DUP1 SWAP2 SUB SWAP1 LOG4 JUMPDEST POP JUMPDEST DUP4 PUSH1 0x4 PUSH0 DUP6 DUP2 MSTORE PUSH1 0x20 ADD SWAP1 DUP2 MSTORE PUSH1 0x20 ADD PUSH0 KECCAK256 PUSH0 PUSH2 0x100 EXP DUP2 SLOAD DUP2 PUSH20 0xFFFFFFFFFFFFFFFFFFFFFFFFFFFFFFFFFFFFFFFF MUL NOT AND SWAP1 DUP4 PUSH20 0xFFFFFFFFFFFFFFFFFFFFFFFFFFFFFFFFFFFFFFFF AND MUL OR SWAP1 SSTORE POP POP POP POP POP JUMP JUMPDEST PUSH0 PUSH2 0x16EE PUSH2 0x1765 JUMP JUMPDEST PUSH2 0x16F9 DUP5 DUP5 DUP5 PUSH2 0x1960 JUMP JUMPDEST SWAP1 POP SWAP4 SWAP3 POP POP POP JUMP JUMPDEST PUSH2 0x170C DUP4 DUP4 PUSH2 0x1A7A JUMP JUMPDEST PUSH2 0x1720 PUSH2 0x1717 PUSH2 0xDB3 JUMP JUMPDEST PUSH0 DUP6 DUP6 DUP6 PUSH2 0x1176 JUMP JUMPDEST POP POP POP JUMP JUMPDEST PUSH2 0x172D PUSH2 0x90E JUMP JUMPDEST PUSH2 0x1763 JUMPI PUSH1 0x40 MLOAD PUSH32 0x8DFC202B00000000000000000000000000000000000000000000000000000000 DUP2 MSTORE PUSH1 0x4 ADD PUSH1 0x40 MLOAD DUP1 SWAP2 SUB SWAP1 REVERT JUMPDEST JUMP JUMPDEST PUSH2 0x176D PUSH2 0x90E JUMP JUMPDEST ISZERO PUSH2 0x17A4 JUMPI PUSH1 0x40 MLOAD PUSH32 0xD93C066500000000000000000000000000000000000000000000000000000000 DUP2 MSTORE PUSH1 0x4 ADD PUSH1 0x40 MLOAD DUP1 SWAP2 SUB SWAP1 REVERT JUMPDEST JUMP JUMPDEST PUSH0 DUP1 PUSH0 SWAP1 POP PUSH27 0x184F03E93FF9F4DAA797ED6E38ED64BF6A1F010000000000000000 DUP4 LT PUSH2 0x1802 JUMPI PUSH27 0x184F03E93FF9F4DAA797ED6E38ED64BF6A1F010000000000000000 DUP4 DUP2 PUSH2 0x17F8 JUMPI PUSH2 0x17F7 PUSH2 0x2A23 JUMP JUMPDEST JUMPDEST DIV SWAP3 POP PUSH1 0x40 DUP2 ADD SWAP1 POP JUMPDEST PUSH14 0x4EE2D6D415B85ACEF8100000000 DUP4 LT PUSH2 0x183F JUMPI PUSH14 0x4EE2D6D415B85ACEF8100000000 DUP4 DUP2 PUSH2 0x1835 JUMPI PUSH2 0x1834 PUSH2 0x2A23 JUMP JUMPDEST JUMPDEST DIV SWAP3 POP PUSH1 0x20 DUP2 ADD SWAP1 POP JUMPDEST PUSH7 0x2386F26FC10000 DUP4 LT PUSH2 0x186E JUMPI PUSH7 0x2386F26FC10000 DUP4 DUP2 PUSH2 0x1864 JUMPI PUSH2 0x1863 PUSH2 0x2A23 JUMP JUMPDEST JUMPDEST DIV SWAP3 POP PUSH1 0x10 DUP2 ADD SWAP1 POP JUMPDEST PUSH4 0x5F5E100 DUP4 LT PUSH2 0x1897 JUMPI PUSH4 0x5F5E100 DUP4 DUP2 PUSH2 0x188D JUMPI PUSH2 0x188C PUSH2 0x2A23 JUMP JUMPDEST JUMPDEST DIV SWAP3 POP PUSH1 0x8 DUP2 ADD SWAP1 POP JUMPDEST PUSH2 0x2710 DUP4 LT PUSH2 0x18BC JUMPI PUSH2 0x2710 DUP4 DUP2 PUSH2 0x18B2 JUMPI PUSH2 0x18B1 PUSH2 0x2A23 JUMP JUMPDEST JUMPDEST DIV SWAP3 POP PUSH1 0x4 DUP2 ADD SWAP1 POP JUMPDEST PUSH1 0x64 DUP4 LT PUSH2 0x18DF JUMPI PUSH1 0x64 DUP4 DUP2 PUSH2 0x18D5 JUMPI PUSH2 0x18D4 PUSH2 0x2A23 JUMP JUMPDEST JUMPDEST DIV SWAP3 POP PUSH1 0x2 DUP2 ADD SWAP1 POP JUMPDEST PUSH1 0xA DUP4 LT PUSH2 0x18EE JUMPI PUSH1 0x1 DUP2 ADD SWAP1 POP JUMPDEST DUP1 SWAP2 POP POP SWAP2 SWAP1 POP JUMP JUMPDEST PUSH0 PUSH32 0x1FFC9A700000000000000000000000000000000000000000000000000000000 PUSH28 0xFFFFFFFFFFFFFFFFFFFFFFFFFFFFFFFFFFFFFFFFFFFFFFFFFFFFFFFF NOT AND DUP3 PUSH28 0xFFFFFFFFFFFFFFFFFFFFFFFFFFFFFFFFFFFFFFFFFFFFFFFFFFFFFFFF NOT AND EQ SWAP1 POP SWAP2 SWAP1 POP JUMP JUMPDEST PUSH0 DUP1 PUSH2 0x196D DUP6 DUP6 DUP6 PUSH2 0x1B6D JUMP JUMPDEST SWAP1 POP PUSH0 PUSH20 0xFFFFFFFFFFFFFFFFFFFFFFFFFFFFFFFFFFFFFFFF AND DUP2 PUSH20 0xFFFFFFFFFFFFFFFFFFFFFFFFFFFFFFFFFFFFFFFF AND SUB PUSH2 0x19B0 JUMPI PUSH2 0x19AB DUP5 PUSH2 0x1D78 JUMP JUMPDEST PUSH2 0x19EF JUMP JUMPDEST DUP5 PUSH20 0xFFFFFFFFFFFFFFFFFFFFFFFFFFFFFFFFFFFFFFFF AND DUP2 PUSH20 0xFFFFFFFFFFFFFFFFFFFFFFFFFFFFFFFFFFFFFFFF AND EQ PUSH2 0x19EE JUMPI PUSH2 0x19ED DUP2 DUP6 PUSH2 0x1DBC JUMP JUMPDEST JUMPDEST JUMPDEST PUSH0 PUSH20 0xFFFFFFFFFFFFFFFFFFFFFFFFFFFFFFFFFFFFFFFF AND DUP6 PUSH20 0xFFFFFFFFFFFFFFFFFFFFFFFFFFFFFFFFFFFFFFFF AND SUB PUSH2 0x1A30 JUMPI PUSH2 0x1A2B DUP5 PUSH2 0x1E93 JUMP JUMPDEST PUSH2 0x1A6F JUMP JUMPDEST DUP5 PUSH20 0xFFFFFFFFFFFFFFFFFFFFFFFFFFFFFFFFFFFFFFFF AND DUP2 PUSH20 0xFFFFFFFFFFFFFFFFFFFFFFFFFFFFFFFFFFFFFFFF AND EQ PUSH2 0x1A6E JUMPI PUSH2 0x1A6D DUP6 DUP6 PUSH2 0x1F53 JUMP JUMPDEST JUMPDEST JUMPDEST DUP1 SWAP2 POP POP SWAP4 SWAP3 POP POP POP JUMP JUMPDEST PUSH0 PUSH20 0xFFFFFFFFFFFFFFFFFFFFFFFFFFFFFFFFFFFFFFFF AND DUP3 PUSH20 0xFFFFFFFFFFFFFFFFFFFFFFFFFFFFFFFFFFFFFFFF AND SUB PUSH2 0x1AEA JUMPI PUSH0 PUSH1 0x40 MLOAD PUSH32 0x64A0AE9200000000000000000000000000000000000000000000000000000000 DUP2 MSTORE PUSH1 0x4 ADD PUSH2 0x1AE1 SWAP2 SWAP1 PUSH2 0x234B JUMP JUMPDEST PUSH1 0x40 MLOAD DUP1 SWAP2 SUB SWAP1 REVERT JUMPDEST PUSH0 PUSH2 0x1AF6 DUP4 DUP4 PUSH0 PUSH2 0xDCC JUMP JUMPDEST SWAP1 POP PUSH0 PUSH20 0xFFFFFFFFFFFFFFFFFFFFFFFFFFFFFFFFFFFFFFFF AND DUP2 PUSH20 0xFFFFFFFFFFFFFFFFFFFFFFFFFFFFFFFFFFFFFFFF AND EQ PUSH2 0x1B68 JUMPI PUSH0 PUSH1 0x40 MLOAD PUSH32 0x73C6AC6E00000000000000000000000000000000000000000000000000000000 DUP2 MSTORE PUSH1 0x4 ADD PUSH2 0x1B5F SWAP2 SWAP1 PUSH2 0x234B JUMP JUMPDEST PUSH1 0x40 MLOAD DUP1 SWAP2 SUB SWAP1 REVERT JUMPDEST POP POP POP JUMP JUMPDEST PUSH0 DUP1 PUSH2 0x1B78 DUP5 PUSH2 0x14ED JUMP JUMPDEST SWAP1 POP PUSH0 PUSH20 0xFFFFFFFFFFFFFFFFFFFFFFFFFFFFFFFFFFFFFFFF AND DUP4 PUSH20 0xFFFFFFFFFFFFFFFFFFFFFFFFFFFFFFFFFFFFFFFF AND EQ PUSH2 0x1BB9 JUMPI PUSH2 0x1BB8 DUP2 DUP5 DUP7 PUSH2 0x1FD7 JUMP JUMPDEST JUMPDEST PUSH0 PUSH20 0xFFFFFFFFFFFFFFFFFFFFFFFFFFFFFFFFFFFFFFFF AND DUP2 PUSH20 0xFFFFFFFFFFFFFFFFFFFFFFFFFFFFFFFFFFFFFFFF AND EQ PUSH2 0x1C44 JUMPI PUSH2 0x1BF8 PUSH0 DUP6 PUSH0 DUP1 PUSH2 0x1526 JUMP JUMPDEST PUSH1 0x1 PUSH1 0x3 PUSH0 DUP4 PUSH20 0xFFFFFFFFFFFFFFFFFFFFFFFFFFFFFFFFFFFFFFFF AND PUSH20 0xFFFFFFFFFFFFFFFFFFFFFFFFFFFFFFFFFFFFFFFF AND DUP2 MSTORE PUSH1 0x20 ADD SWAP1 DUP2 MSTORE PUSH1 0x20 ADD PUSH0 KECCAK256 PUSH0 DUP3 DUP3 SLOAD SUB SWAP3 POP POP DUP2 SWAP1 SSTORE POP JUMPDEST PUSH0 PUSH20 0xFFFFFFFFFFFFFFFFFFFFFFFFFFFFFFFFFFFFFFFF AND DUP6 PUSH20 0xFFFFFFFFFFFFFFFFFFFFFFFFFFFFFFFFFFFFFFFF AND EQ PUSH2 0x1CC3 JUMPI PUSH1 0x1 PUSH1 0x3 PUSH0 DUP8 PUSH20 0xFFFFFFFFFFFFFFFFFFFFFFFFFFFFFFFFFFFFFFFF AND PUSH20 0xFFFFFFFFFFFFFFFFFFFFFFFFFFFFFFFFFFFFFFFF AND DUP2 MSTORE PUSH1 0x20 ADD SWAP1 DUP2 MSTORE PUSH1 0x20 ADD PUSH0 KECCAK256 PUSH0 DUP3 DUP3 SLOAD ADD SWAP3 POP POP DUP2 SWAP1 SSTORE POP JUMPDEST DUP5 PUSH1 0x2 PUSH0 DUP7 DUP2 MSTORE PUSH1 0x20 ADD SWAP1 DUP2 MSTORE PUSH1 0x20 ADD PUSH0 KECCAK256 PUSH0 PUSH2 0x100 EXP DUP2 SLOAD DUP2 PUSH20 0xFFFFFFFFFFFFFFFFFFFFFFFFFFFFFFFFFFFFFFFF MUL NOT AND SWAP1 DUP4 PUSH20 0xFFFFFFFFFFFFFFFFFFFFFFFFFFFFFFFFFFFFFFFF AND MUL OR SWAP1 SSTORE POP DUP4 DUP6 PUSH20 0xFFFFFFFFFFFFFFFFFFFFFFFFFFFFFFFFFFFFFFFF AND DUP3 PUSH20 0xFFFFFFFFFFFFFFFFFFFFFFFFFFFFFFFFFFFFFFFF AND PUSH32 0xDDF252AD1BE2C89B69C2B068FC378DAA952BA7F163C4A11628F55A4DF523B3EF PUSH1 0x40 MLOAD PUSH1 0x40 MLOAD DUP1 SWAP2 SUB SWAP1 LOG4 DUP1 SWAP2 POP POP SWAP4 SWAP3 POP POP POP JUMP JUMPDEST PUSH1 0x8 DUP1 SLOAD SWAP1 POP PUSH1 0x9 PUSH0 DUP4 DUP2 MSTORE PUSH1 0x20 ADD SWAP1 DUP2 MSTORE PUSH1 0x20 ADD PUSH0 KECCAK256 DUP2 SWAP1 SSTORE POP PUSH1 0x8 DUP2 SWAP1 DUP1 PUSH1 0x1 DUP2 SLOAD ADD DUP1 DUP3 SSTORE DUP1 SWAP2 POP POP PUSH1 0x1 SWAP1 SUB SWAP1 PUSH0 MSTORE PUSH1 0x20 PUSH0 KECCAK256 ADD PUSH0 SWAP1 SWAP2 SWAP1 SWAP2 SWAP1 SWAP2 POP SSTORE POP JUMP JUMPDEST PUSH0 PUSH2 0x1DC6 DUP4 PUSH2 0x934 JUMP JUMPDEST SWAP1 POP PUSH0 PUSH1 0x7 PUSH0 DUP5 DUP2 MSTORE PUSH1 0x20 ADD SWAP1 DUP2 MSTORE PUSH1 0x20 ADD PUSH0 KECCAK256 SLOAD SWAP1 POP PUSH0 PUSH1 0x6 PUSH0 DUP7 PUSH20 0xFFFFFFFFFFFFFFFFFFFFFFFFFFFFFFFFFFFFFFFF AND PUSH20 0xFFFFFFFFFFFFFFFFFFFFFFFFFFFFFFFFFFFFFFFF AND DUP2 MSTORE PUSH1 0x20 ADD SWAP1 DUP2 MSTORE PUSH1 0x20 ADD PUSH0 KECCAK256 SWAP1 POP DUP3 DUP3 EQ PUSH2 0x1E65 JUMPI PUSH0 DUP2 PUSH0 DUP6 DUP2 MSTORE PUSH1 0x20 ADD SWAP1 DUP2 MSTORE PUSH1 0x20 ADD PUSH0 KECCAK256 SLOAD SWAP1 POP DUP1 DUP3 PUSH0 DUP6 DUP2 MSTORE PUSH1 0x20 ADD SWAP1 DUP2 MSTORE PUSH1 0x20 ADD PUSH0 KECCAK256 DUP2 SWAP1 SSTORE POP DUP3 PUSH1 0x7 PUSH0 DUP4 DUP2 MSTORE PUSH1 0x20 ADD SWAP1 DUP2 MSTORE PUSH1 0x20 ADD PUSH0 KECCAK256 DUP2 SWAP1 SSTORE POP POP JUMPDEST PUSH1 0x7 PUSH0 DUP6 DUP2 MSTORE PUSH1 0x20 ADD SWAP1 DUP2 MSTORE PUSH1 0x20 ADD PUSH0 KECCAK256 PUSH0 SWAP1 SSTORE DUP1 PUSH0 DUP5 DUP2 MSTORE PUSH1 0x20 ADD SWAP1 DUP2 MSTORE PUSH1 0x20 ADD PUSH0 KECCAK256 PUSH0 SWAP1 SSTORE POP POP POP POP POP JUMP JUMPDEST PUSH0 PUSH1 0x1 PUSH1 0x8 DUP1 SLOAD SWAP1 POP PUSH2 0x1EA6 SWAP2 SWAP1 PUSH2 0x2A50 JUMP JUMPDEST SWAP1 POP PUSH0 PUSH1 0x9 PUSH0 DUP5 DUP2 MSTORE PUSH1 0x20 ADD SWAP1 DUP2 MSTORE PUSH1 0x20 ADD PUSH0 KECCAK256 SLOAD SWAP1 POP PUSH0 PUSH1 0x8 DUP4 DUP2 SLOAD DUP2 LT PUSH2 0x1ED2 JUMPI PUSH2 0x1ED1 PUSH2 0x28BE JUMP JUMPDEST JUMPDEST SWAP1 PUSH0 MSTORE PUSH1 0x20 PUSH0 KECCAK256 ADD SLOAD SWAP1 POP DUP1 PUSH1 0x8 DUP4 DUP2 SLOAD DUP2 LT PUSH2 0x1EF2 JUMPI PUSH2 0x1EF1 PUSH2 0x28BE JUMP JUMPDEST JUMPDEST SWAP1 PUSH0 MSTORE PUSH1 0x20 PUSH0 KECCAK256 ADD DUP2 SWAP1 SSTORE POP DUP2 PUSH1 0x9 PUSH0 DUP4 DUP2 MSTORE PUSH1 0x20 ADD SWAP1 DUP2 MSTORE PUSH1 0x20 ADD PUSH0 KECCAK256 DUP2 SWAP1 SSTORE POP PUSH1 0x9 PUSH0 DUP6 DUP2 MSTORE PUSH1 0x20 ADD SWAP1 DUP2 MSTORE PUSH1 0x20 ADD PUSH0 KECCAK256 PUSH0 SWAP1 SSTORE PUSH1 0x8 DUP1 SLOAD DUP1 PUSH2 0x1F3A JUMPI PUSH2 0x1F39 PUSH2 0x2A83 JUMP JUMPDEST JUMPDEST PUSH1 0x1 SWAP1 SUB DUP2 DUP2 SWAP1 PUSH0 MSTORE PUSH1 0x20 PUSH0 KECCAK256 ADD PUSH0 SWAP1 SSTORE SWAP1 SSTORE POP POP POP POP JUMP JUMPDEST PUSH0 PUSH1 0x1 PUSH2 0x1F5F DUP5 PUSH2 0x934 JUMP JUMPDEST PUSH2 0x1F69 SWAP2 SWAP1 PUSH2 0x2A50 JUMP JUMPDEST SWAP1 POP DUP2 PUSH1 0x6 PUSH0 DUP6 PUSH20 0xFFFFFFFFFFFFFFFFFFFFFFFFFFFFFFFFFFFFFFFF AND PUSH20 0xFFFFFFFFFFFFFFFFFFFFFFFFFFFFFFFFFFFFFFFF AND DUP2 MSTORE PUSH1 0x20 ADD SWAP1 DUP2 MSTORE PUSH1 0x20 ADD PUSH0 KECCAK256 PUSH0 DUP4 DUP2 MSTORE PUSH1 0x20 ADD SWAP1 DUP2 MSTORE PUSH1 0x20 ADD PUSH0 KECCAK256 DUP2 SWAP1 SSTORE POP DUP1 PUSH1 0x7 PUSH0 DUP5 DUP2 MSTORE PUSH1 0x20 ADD SWAP1 DUP2 MSTORE PUSH1 0x20 ADD PUSH0 KECCAK256 DUP2 SWAP1 SSTORE POP POP POP POP JUMP JUMPDEST PUSH2 0x1FE2 DUP4 DUP4 DUP4 PUSH2 0x209A JUMP JUMPDEST PUSH2 0x2095 JUMPI PUSH0 PUSH20 0xFFFFFFFFFFFFFFFFFFFFFFFFFFFFFFFFFFFFFFFF AND DUP4 PUSH20 0xFFFFFFFFFFFFFFFFFFFFFFFFFFFFFFFFFFFFFFFF AND SUB PUSH2 0x2056 JUMPI DUP1 PUSH1 0x40 MLOAD PUSH32 0x7E27328900000000000000000000000000000000000000000000000000000000 DUP2 MSTORE PUSH1 0x4 ADD PUSH2 0x204D SWAP2 SWAP1 PUSH2 0x23DB JUMP JUMPDEST PUSH1 0x40 MLOAD DUP1 SWAP2 SUB SWAP1 REVERT JUMPDEST DUP2 DUP2 PUSH1 0x40 MLOAD PUSH32 0x177E802F00000000000000000000000000000000000000000000000000000000 DUP2 MSTORE PUSH1 0x4 ADD PUSH2 0x208C SWAP3 SWAP2 SWAP1 PUSH2 0x2897 JUMP JUMPDEST PUSH1 0x40 MLOAD DUP1 SWAP2 SUB SWAP1 REVERT JUMPDEST POP POP POP JUMP JUMPDEST PUSH0 DUP1 PUSH20 0xFFFFFFFFFFFFFFFFFFFFFFFFFFFFFFFFFFFFFFFF AND DUP4 PUSH20 0xFFFFFFFFFFFFFFFFFFFFFFFFFFFFFFFFFFFFFFFF AND EQ ISZERO DUP1 ISZERO PUSH2 0x2151 JUMPI POP DUP3 PUSH20 0xFFFFFFFFFFFFFFFFFFFFFFFFFFFFFFFFFFFFFFFF AND DUP5 PUSH20 0xFFFFFFFFFFFFFFFFFFFFFFFFFFFFFFFFFFFFFFFF AND EQ DUP1 PUSH2 0x2112 JUMPI POP PUSH2 0x2111 DUP5 DUP5 PUSH2 0xB69 JUMP JUMPDEST JUMPDEST DUP1 PUSH2 0x2150 JUMPI POP DUP3 PUSH20 0xFFFFFFFFFFFFFFFFFFFFFFFFFFFFFFFFFFFFFFFF AND PUSH2 0x2138 DUP4 PUSH2 0xD7A JUMP JUMPDEST PUSH20 0xFFFFFFFFFFFFFFFFFFFFFFFFFFFFFFFFFFFFFFFF AND EQ JUMPDEST JUMPDEST SWAP1 POP SWAP4 SWAP3 POP POP POP JUMP JUMPDEST PUSH0 PUSH1 0x40 MLOAD SWAP1 POP SWAP1 JUMP JUMPDEST PUSH0 DUP1 REVERT JUMPDEST PUSH0 DUP1 REVERT JUMPDEST PUSH0 PUSH32 0xFFFFFFFF00000000000000000000000000000000000000000000000000000000 DUP3 AND SWAP1 POP SWAP2 SWAP1 POP JUMP JUMPDEST PUSH2 0x219F DUP2 PUSH2 0x216B JUMP JUMPDEST DUP2 EQ PUSH2 0x21A9 JUMPI PUSH0 DUP1 REVERT JUMPDEST POP JUMP JUMPDEST PUSH0 DUP2 CALLDATALOAD SWAP1 POP PUSH2 0x21BA DUP2 PUSH2 0x2196 JUMP JUMPDEST SWAP3 SWAP2 POP POP JUMP JUMPDEST PUSH0 PUSH1 0x20 DUP3 DUP5 SUB SLT ISZERO PUSH2 0x21D5 JUMPI PUSH2 0x21D4 PUSH2 0x2163 JUMP JUMPDEST JUMPDEST PUSH0 PUSH2 0x21E2 DUP5 DUP3 DUP6 ADD PUSH2 0x21AC JUMP JUMPDEST SWAP2 POP POP SWAP3 SWAP2 POP POP JUMP JUMPDEST PUSH0 DUP2 ISZERO ISZERO SWAP1 POP SWAP2 SWAP1 POP JUMP JUMPDEST PUSH2 0x21FF DUP2 PUSH2 0x21EB JUMP JUMPDEST DUP3 MSTORE POP POP JUMP JUMPDEST PUSH0 PUSH1 0x20 DUP3 ADD SWAP1 POP PUSH2 0x2218 PUSH0 DUP4 ADD DUP5 PUSH2 0x21F6 JUMP JUMPDEST SWAP3 SWAP2 POP POP JUMP JUMPDEST PUSH0 DUP2 MLOAD SWAP1 POP SWAP2 SWAP1 POP JUMP JUMPDEST PUSH0 DUP3 DUP3 MSTORE PUSH1 0x20 DUP3 ADD SWAP1 POP SWAP3 SWAP2 POP POP JUMP JUMPDEST DUP3 DUP2 DUP4 MCOPY PUSH0 DUP4 DUP4 ADD MSTORE POP POP POP JUMP JUMPDEST PUSH0 PUSH1 0x1F NOT PUSH1 0x1F DUP4 ADD AND SWAP1 POP SWAP2 SWAP1 POP JUMP JUMPDEST PUSH0 PUSH2 0x2260 DUP3 PUSH2 0x221E JUMP JUMPDEST PUSH2 0x226A DUP2 DUP6 PUSH2 0x2228 JUMP JUMPDEST SWAP4 POP PUSH2 0x227A DUP2 DUP6 PUSH1 0x20 DUP7 ADD PUSH2 0x2238 JUMP JUMPDEST PUSH2 0x2283 DUP2 PUSH2 0x2246 JUMP JUMPDEST DUP5 ADD SWAP2 POP POP SWAP3 SWAP2 POP POP JUMP JUMPDEST PUSH0 PUSH1 0x20 DUP3 ADD SWAP1 POP DUP2 DUP2 SUB PUSH0 DUP4 ADD MSTORE PUSH2 0x22A6 DUP2 DUP5 PUSH2 0x2256 JUMP JUMPDEST SWAP1 POP SWAP3 SWAP2 POP POP JUMP JUMPDEST PUSH0 DUP2 SWAP1 POP SWAP2 SWAP1 POP JUMP JUMPDEST PUSH2 0x22C0 DUP2 PUSH2 0x22AE JUMP JUMPDEST DUP2 EQ PUSH2 0x22CA JUMPI PUSH0 DUP1 REVERT JUMPDEST POP JUMP JUMPDEST PUSH0 DUP2 CALLDATALOAD SWAP1 POP PUSH2 0x22DB DUP2 PUSH2 0x22B7 JUMP JUMPDEST SWAP3 SWAP2 POP POP JUMP JUMPDEST PUSH0 PUSH1 0x20 DUP3 DUP5 SUB SLT ISZERO PUSH2 0x22F6 JUMPI PUSH2 0x22F5 PUSH2 0x2163 JUMP JUMPDEST JUMPDEST PUSH0 PUSH2 0x2303 DUP5 DUP3 DUP6 ADD PUSH2 0x22CD JUMP JUMPDEST SWAP2 POP POP SWAP3 SWAP2 POP POP JUMP JUMPDEST PUSH0 PUSH20 0xFFFFFFFFFFFFFFFFFFFFFFFFFFFFFFFFFFFFFFFF DUP3 AND SWAP1 POP SWAP2 SWAP1 POP JUMP JUMPDEST PUSH0 PUSH2 0x2335 DUP3 PUSH2 0x230C JUMP JUMPDEST SWAP1 POP SWAP2 SWAP1 POP JUMP JUMPDEST PUSH2 0x2345 DUP2 PUSH2 0x232B JUMP JUMPDEST DUP3 MSTORE POP POP JUMP JUMPDEST PUSH0 PUSH1 0x20 DUP3 ADD SWAP1 POP PUSH2 0x235E PUSH0 DUP4 ADD DUP5 PUSH2 0x233C JUMP JUMPDEST SWAP3 SWAP2 POP POP JUMP JUMPDEST PUSH2 0x236D DUP2 PUSH2 0x232B JUMP JUMPDEST DUP2 EQ PUSH2 0x2377 JUMPI PUSH0 DUP1 REVERT JUMPDEST POP JUMP JUMPDEST PUSH0 DUP2 CALLDATALOAD SWAP1 POP PUSH2 0x2388 DUP2 PUSH2 0x2364 JUMP JUMPDEST SWAP3 SWAP2 POP POP JUMP JUMPDEST PUSH0 DUP1 PUSH1 0x40 DUP4 DUP6 SUB SLT ISZERO PUSH2 0x23A4 JUMPI PUSH2 0x23A3 PUSH2 0x2163 JUMP JUMPDEST JUMPDEST PUSH0 PUSH2 0x23B1 DUP6 DUP3 DUP7 ADD PUSH2 0x237A JUMP JUMPDEST SWAP3 POP POP PUSH1 0x20 PUSH2 0x23C2 DUP6 DUP3 DUP7 ADD PUSH2 0x22CD JUMP JUMPDEST SWAP2 POP POP SWAP3 POP SWAP3 SWAP1 POP JUMP JUMPDEST PUSH2 0x23D5 DUP2 PUSH2 0x22AE JUMP JUMPDEST DUP3 MSTORE POP POP JUMP JUMPDEST PUSH0 PUSH1 0x20 DUP3 ADD SWAP1 POP PUSH2 0x23EE PUSH0 DUP4 ADD DUP5 PUSH2 0x23CC JUMP JUMPDEST SWAP3 SWAP2 POP POP JUMP JUMPDEST PUSH0 DUP1 PUSH0 PUSH1 0x60 DUP5 DUP7 SUB SLT ISZERO PUSH2 0x240B JUMPI PUSH2 0x240A PUSH2 0x2163 JUMP JUMPDEST JUMPDEST PUSH0 PUSH2 0x2418 DUP7 DUP3 DUP8 ADD PUSH2 0x237A JUMP JUMPDEST SWAP4 POP POP PUSH1 0x20 PUSH2 0x2429 DUP7 DUP3 DUP8 ADD PUSH2 0x237A JUMP JUMPDEST SWAP3 POP POP PUSH1 0x40 PUSH2 0x243A DUP7 DUP3 DUP8 ADD PUSH2 0x22CD JUMP JUMPDEST SWAP2 POP POP SWAP3 POP SWAP3 POP SWAP3 JUMP JUMPDEST PUSH0 PUSH1 0x20 DUP3 DUP5 SUB SLT ISZERO PUSH2 0x2459 JUMPI PUSH2 0x2458 PUSH2 0x2163 JUMP JUMPDEST JUMPDEST PUSH0 PUSH2 0x2466 DUP5 DUP3 DUP6 ADD PUSH2 0x237A JUMP JUMPDEST SWAP2 POP POP SWAP3 SWAP2 POP POP JUMP JUMPDEST PUSH2 0x2478 DUP2 PUSH2 0x21EB JUMP JUMPDEST DUP2 EQ PUSH2 0x2482 JUMPI PUSH0 DUP1 REVERT JUMPDEST POP JUMP JUMPDEST PUSH0 DUP2 CALLDATALOAD SWAP1 POP PUSH2 0x2493 DUP2 PUSH2 0x246F JUMP JUMPDEST SWAP3 SWAP2 POP POP JUMP JUMPDEST PUSH0 DUP1 PUSH1 0x40 DUP4 DUP6 SUB SLT ISZERO PUSH2 0x24AF JUMPI PUSH2 0x24AE PUSH2 0x2163 JUMP JUMPDEST JUMPDEST PUSH0 PUSH2 0x24BC DUP6 DUP3 DUP7 ADD PUSH2 0x237A JUMP JUMPDEST SWAP3 POP POP PUSH1 0x20 PUSH2 0x24CD DUP6 DUP3 DUP7 ADD PUSH2 0x2485 JUMP JUMPDEST SWAP2 POP POP SWAP3 POP SWAP3 SWAP1 POP JUMP JUMPDEST PUSH0 DUP1 REVERT JUMPDEST PUSH0 DUP1 REVERT JUMPDEST PUSH32 0x4E487B7100000000000000000000000000000000000000000000000000000000 PUSH0 MSTORE PUSH1 0x41 PUSH1 0x4 MSTORE PUSH1 0x24 PUSH0 REVERT JUMPDEST PUSH2 0x2515 DUP3 PUSH2 0x2246 JUMP JUMPDEST DUP2 ADD DUP2 DUP2 LT PUSH8 0xFFFFFFFFFFFFFFFF DUP3 GT OR ISZERO PUSH2 0x2534 JUMPI PUSH2 0x2533 PUSH2 0x24DF JUMP JUMPDEST JUMPDEST DUP1 PUSH1 0x40 MSTORE POP POP POP JUMP JUMPDEST PUSH0 PUSH2 0x2546 PUSH2 0x215A JUMP JUMPDEST SWAP1 POP PUSH2 0x2552 DUP3 DUP3 PUSH2 0x250C JUMP JUMPDEST SWAP2 SWAP1 POP JUMP JUMPDEST PUSH0 PUSH8 0xFFFFFFFFFFFFFFFF DUP3 GT ISZERO PUSH2 0x2571 JUMPI PUSH2 0x2570 PUSH2 0x24DF JUMP JUMPDEST JUMPDEST PUSH2 0x257A DUP3 PUSH2 0x2246 JUMP JUMPDEST SWAP1 POP PUSH1 0x20 DUP2 ADD SWAP1 POP SWAP2 SWAP1 POP JUMP JUMPDEST DUP3 DUP2 DUP4 CALLDATACOPY PUSH0 DUP4 DUP4 ADD MSTORE POP POP POP JUMP JUMPDEST PUSH0 PUSH2 0x25A7 PUSH2 0x25A2 DUP5 PUSH2 0x2557 JUMP JUMPDEST PUSH2 0x253D JUMP JUMPDEST SWAP1 POP DUP3 DUP2 MSTORE PUSH1 0x20 DUP2 ADD DUP5 DUP5 DUP5 ADD GT ISZERO PUSH2 0x25C3 JUMPI PUSH2 0x25C2 PUSH2 0x24DB JUMP JUMPDEST JUMPDEST PUSH2 0x25CE DUP5 DUP3 DUP6 PUSH2 0x2587 JUMP JUMPDEST POP SWAP4 SWAP3 POP POP POP JUMP JUMPDEST PUSH0 DUP3 PUSH1 0x1F DUP4 ADD SLT PUSH2 0x25EA JUMPI PUSH2 0x25E9 PUSH2 0x24D7 JUMP JUMPDEST JUMPDEST DUP2 CALLDATALOAD PUSH2 0x25FA DUP5 DUP3 PUSH1 0x20 DUP7 ADD PUSH2 0x2595 JUMP JUMPDEST SWAP2 POP POP SWAP3 SWAP2 POP POP JUMP JUMPDEST PUSH0 DUP1 PUSH0 DUP1 PUSH1 0x80 DUP6 DUP8 SUB SLT ISZERO PUSH2 0x261B JUMPI PUSH2 0x261A PUSH2 0x2163 JUMP JUMPDEST JUMPDEST PUSH0 PUSH2 0x2628 DUP8 DUP3 DUP9 ADD PUSH2 0x237A JUMP JUMPDEST SWAP5 POP POP PUSH1 0x20 PUSH2 0x2639 DUP8 DUP3 DUP9 ADD PUSH2 0x237A JUMP JUMPDEST SWAP4 POP POP PUSH1 0x40 PUSH2 0x264A DUP8 DUP3 DUP9 ADD PUSH2 0x22CD JUMP JUMPDEST SWAP3 POP POP PUSH1 0x60 DUP6 ADD CALLDATALOAD PUSH8 0xFFFFFFFFFFFFFFFF DUP2 GT ISZERO PUSH2 0x266B JUMPI PUSH2 0x266A PUSH2 0x2167 JUMP JUMPDEST JUMPDEST PUSH2 0x2677 DUP8 DUP3 DUP9 ADD PUSH2 0x25D6 JUMP JUMPDEST SWAP2 POP POP SWAP3 SWAP6 SWAP2 SWAP5 POP SWAP3 POP JUMP JUMPDEST PUSH0 DUP1 PUSH1 0x40 DUP4 DUP6 SUB SLT ISZERO PUSH2 0x2699 JUMPI PUSH2 0x2698 PUSH2 0x2163 JUMP JUMPDEST JUMPDEST PUSH0 PUSH2 0x26A6 DUP6 DUP3 DUP7 ADD PUSH2 0x237A JUMP JUMPDEST SWAP3 POP POP PUSH1 0x20 PUSH2 0x26B7 DUP6 DUP3 DUP7 ADD PUSH2 0x237A JUMP JUMPDEST SWAP2 POP POP SWAP3 POP SWAP3 SWAP1 POP JUMP JUMPDEST PUSH32 0x4E487B7100000000000000000000000000000000000000000000000000000000 PUSH0 MSTORE PUSH1 0x22 PUSH1 0x4 MSTORE PUSH1 0x24 PUSH0 REVERT JUMPDEST PUSH0 PUSH1 0x2 DUP3 DIV SWAP1 POP PUSH1 0x1 DUP3 AND DUP1 PUSH2 0x2705 JUMPI PUSH1 0x7F DUP3 AND SWAP2 POP JUMPDEST PUSH1 0x20 DUP3 LT DUP2 SUB PUSH2 0x2718 JUMPI PUSH2 0x2717 PUSH2 0x26C1 JUMP JUMPDEST JUMPDEST POP SWAP2 SWAP1 POP JUMP JUMPDEST PUSH0 PUSH1 0x60 DUP3 ADD SWAP1 POP PUSH2 0x2731 PUSH0 DUP4 ADD DUP7 PUSH2 0x233C JUMP JUMPDEST PUSH2 0x273E PUSH1 0x20 DUP4 ADD DUP6 PUSH2 0x23CC JUMP JUMPDEST PUSH2 0x274B PUSH1 0x40 DUP4 ADD DUP5 PUSH2 0x233C JUMP JUMPDEST SWAP5 SWAP4 POP POP POP POP JUMP JUMPDEST PUSH32 0x4E6F7420656E6F7567682066756E647300000000000000000000000000000000 PUSH0 DUP3 ADD MSTORE POP JUMP JUMPDEST PUSH0 PUSH2 0x2787 PUSH1 0x10 DUP4 PUSH2 0x2228 JUMP JUMPDEST SWAP2 POP PUSH2 0x2792 DUP3 PUSH2 0x2753 JUMP JUMPDEST PUSH1 0x20 DUP3 ADD SWAP1 POP SWAP2 SWAP1 POP JUMP JUMPDEST PUSH0 PUSH1 0x20 DUP3 ADD SWAP1 POP DUP2 DUP2 SUB PUSH0 DUP4 ADD MSTORE PUSH2 0x27B4 DUP2 PUSH2 0x277B JUMP JUMPDEST SWAP1 POP SWAP2 SWAP1 POP JUMP JUMPDEST PUSH32 0x576520536F6C64204F7574210000000000000000000000000000000000000000 PUSH0 DUP3 ADD MSTORE POP JUMP JUMPDEST PUSH0 PUSH2 0x27EF PUSH1 0xC DUP4 PUSH2 0x2228 JUMP JUMPDEST SWAP2 POP PUSH2 0x27FA DUP3 PUSH2 0x27BB JUMP JUMPDEST PUSH1 0x20 DUP3 ADD SWAP1 POP SWAP2 SWAP1 POP JUMP JUMPDEST PUSH0 PUSH1 0x20 DUP3 ADD SWAP1 POP DUP2 DUP2 SUB PUSH0 DUP4 ADD MSTORE PUSH2 0x281C DUP2 PUSH2 0x27E3 JUMP JUMPDEST SWAP1 POP SWAP2 SWAP1 POP JUMP JUMPDEST PUSH32 0x4E487B7100000000000000000000000000000000000000000000000000000000 PUSH0 MSTORE PUSH1 0x11 PUSH1 0x4 MSTORE PUSH1 0x24 PUSH0 REVERT JUMPDEST PUSH0 PUSH2 0x285A DUP3 PUSH2 0x22AE JUMP JUMPDEST SWAP2 POP PUSH32 0xFFFFFFFFFFFFFFFFFFFFFFFFFFFFFFFFFFFFFFFFFFFFFFFFFFFFFFFFFFFFFFFF DUP3 SUB PUSH2 0x288C JUMPI PUSH2 0x288B PUSH2 0x2823 JUMP JUMPDEST JUMPDEST PUSH1 0x1 DUP3 ADD SWAP1 POP SWAP2 SWAP1 POP JUMP JUMPDEST PUSH0 PUSH1 0x40 DUP3 ADD SWAP1 POP PUSH2 0x28AA PUSH0 DUP4 ADD DUP6 PUSH2 0x233C JUMP JUMPDEST PUSH2 0x28B7 PUSH1 0x20 DUP4 ADD DUP5 PUSH2 0x23CC JUMP JUMPDEST SWAP4 SWAP3 POP POP POP JUMP JUMPDEST PUSH32 0x4E487B7100000000000000000000000000000000000000000000000000000000 PUSH0 MSTORE PUSH1 0x32 PUSH1 0x4 MSTORE PUSH1 0x24 PUSH0 REVERT JUMPDEST PUSH0 DUP2 SWAP1 POP SWAP3 SWAP2 POP POP JUMP JUMPDEST PUSH0 PUSH2 0x28FF DUP3 PUSH2 0x221E JUMP JUMPDEST PUSH2 0x2909 DUP2 DUP6 PUSH2 0x28EB JUMP JUMPDEST SWAP4 POP PUSH2 0x2919 DUP2 DUP6 PUSH1 0x20 DUP7 ADD PUSH2 0x2238 JUMP JUMPDEST DUP1 DUP5 ADD SWAP2 POP POP SWAP3 SWAP2 POP POP JUMP JUMPDEST PUSH0 PUSH2 0x2930 DUP3 DUP6 PUSH2 0x28F5 JUMP JUMPDEST SWAP2 POP PUSH2 0x293C DUP3 DUP5 PUSH2 0x28F5 JUMP JUMPDEST SWAP2 POP DUP2 SWAP1 POP SWAP4 SWAP3 POP POP POP JUMP JUMPDEST PUSH0 DUP2 MLOAD SWAP1 POP SWAP2 SWAP1 POP JUMP JUMPDEST PUSH0 DUP3 DUP3 MSTORE PUSH1 0x20 DUP3 ADD SWAP1 POP SWAP3 SWAP2 POP POP JUMP JUMPDEST PUSH0 PUSH2 0x296C DUP3 PUSH2 0x2948 JUMP JUMPDEST PUSH2 0x2976 DUP2 DUP6 PUSH2 0x2952 JUMP JUMPDEST SWAP4 POP PUSH2 0x2986 DUP2 DUP6 PUSH1 0x20 DUP7 ADD PUSH2 0x2238 JUMP JUMPDEST PUSH2 0x298F DUP2 PUSH2 0x2246 JUMP JUMPDEST DUP5 ADD SWAP2 POP POP SWAP3 SWAP2 POP POP JUMP JUMPDEST PUSH0 PUSH1 0x80 DUP3 ADD SWAP1 POP PUSH2 0x29AD PUSH0 DUP4 ADD DUP8 PUSH2 0x233C JUMP JUMPDEST PUSH2 0x29BA PUSH1 0x20 DUP4 ADD DUP7 PUSH2 0x233C JUMP JUMPDEST PUSH2 0x29C7 PUSH1 0x40 DUP4 ADD DUP6 PUSH2 0x23CC JUMP JUMPDEST DUP2 DUP2 SUB PUSH1 0x60 DUP4 ADD MSTORE PUSH2 0x29D9 DUP2 DUP5 PUSH2 0x2962 JUMP JUMPDEST SWAP1 POP SWAP6 SWAP5 POP POP POP POP POP JUMP JUMPDEST PUSH0 DUP2 MLOAD SWAP1 POP PUSH2 0x29F2 DUP2 PUSH2 0x2196 JUMP JUMPDEST SWAP3 SWAP2 POP POP JUMP JUMPDEST PUSH0 PUSH1 0x20 DUP3 DUP5 SUB SLT ISZERO PUSH2 0x2A0D JUMPI PUSH2 0x2A0C PUSH2 0x2163 JUMP JUMPDEST JUMPDEST PUSH0 PUSH2 0x2A1A DUP5 DUP3 DUP6 ADD PUSH2 0x29E4 JUMP JUMPDEST SWAP2 POP POP SWAP3 SWAP2 POP POP JUMP JUMPDEST PUSH32 0x4E487B7100000000000000000000000000000000000000000000000000000000 PUSH0 MSTORE PUSH1 0x12 PUSH1 0x4 MSTORE PUSH1 0x24 PUSH0 REVERT JUMPDEST PUSH0 PUSH2 0x2A5A DUP3 PUSH2 0x22AE JUMP JUMPDEST SWAP2 POP PUSH2 0x2A65 DUP4 PUSH2 0x22AE JUMP JUMPDEST SWAP3 POP DUP3 DUP3 SUB SWAP1 POP DUP2 DUP2 GT ISZERO PUSH2 0x2A7D JUMPI PUSH2 0x2A7C PUSH2 0x2823 JUMP JUMPDEST JUMPDEST SWAP3 SWAP2 POP POP JUMP JUMPDEST PUSH32 0x4E487B7100000000000000000000000000000000000000000000000000000000 PUSH0 MSTORE PUSH1 0x31 PUSH1 0x4 MSTORE PUSH1 0x24 PUSH0 REVERT INVALID PUSH10 0x7066733A2F2F516D5935 PUSH19 0x507147544E31725A784D516732417069535A63 CALLDATACOPY BLOBBASEFEE PUSH10 0x424E73317279447A5850 GAS PUSH17 0x5168433169626D2FA26469706673582212 KECCAK256 0xD5 PUSH19 0x3668D73527B952A533B784A58D8C3A2CC42D7E 0x2D 0x23 0x2C 0xEE PUSH20 0xF42BF244B4A364736F6C634300081A0033000000 "
		},
		"gasEstimates": {
			"creation": {
				"codeDepositCost": "2207200",
				"executionCost": "infinite",
				"totalCost": "infinite"
			},
			"external": {
				"approve(address,uint256)": "infinite",
				"balanceOf(address)": "infinite",
				"getApproved(uint256)": "infinite",
				"isApprovedForAll(address,address)": "infinite",
				"name()": "infinite",
				"owner()": "2699",
				"ownerOf(uint256)": "infinite",
				"pause()": "infinite",
				"paused()": "2496",
				"publicMint()": "infinite",
				"renounceOwnership()": "infinite",
				"safeTransferFrom(address,address,uint256)": "infinite",
				"safeTransferFrom(address,address,uint256,bytes)": "infinite",
				"setApprovalForAll(address,bool)": "infinite",
				"supportsInterface(bytes4)": "917",
				"symbol()": "infinite",
				"tokenByIndex(uint256)": "infinite",
				"tokenOfOwnerByIndex(address,uint256)": "infinite",
				"tokenURI(uint256)": "infinite",
				"totalSupply()": "2552",
				"transferFrom(address,address,uint256)": "infinite",
				"transferOwnership(address)": "infinite",
				"unpause()": "infinite"
			},
			"internal": {
				"_baseURI()": "infinite",
				"_increaseBalance(address,uint128)": "infinite",
				"_update(address,uint256,address)": "infinite"
			}
		},
		"methodIdentifiers": {
			"approve(address,uint256)": "095ea7b3",
			"balanceOf(address)": "70a08231",
			"getApproved(uint256)": "081812fc",
			"isApprovedForAll(address,address)": "e985e9c5",
			"name()": "06fdde03",
			"owner()": "8da5cb5b",
			"ownerOf(uint256)": "6352211e",
			"pause()": "8456cb59",
			"paused()": "5c975abb",
			"publicMint()": "26092b83",
			"renounceOwnership()": "715018a6",
			"safeTransferFrom(address,address,uint256)": "42842e0e",
			"safeTransferFrom(address,address,uint256,bytes)": "b88d4fde",
			"setApprovalForAll(address,bool)": "a22cb465",
			"supportsInterface(bytes4)": "01ffc9a7",
			"symbol()": "95d89b41",
			"tokenByIndex(uint256)": "4f6ccce7",
			"tokenOfOwnerByIndex(address,uint256)": "2f745c59",
			"tokenURI(uint256)": "c87b56dd",
			"totalSupply()": "18160ddd",
			"transferFrom(address,address,uint256)": "23b872dd",
			"transferOwnership(address)": "f2fde38b",
			"unpause()": "3f4ba83a"
		}
	},
	"abi": [
		{
			"inputs": [
				{
					"internalType": "address",
					"name": "initialOwner",
					"type": "address"
				}
			],
			"stateMutability": "nonpayable",
			"type": "constructor"
		},
		{
			"inputs": [],
			"name": "ERC721EnumerableForbiddenBatchMint",
			"type": "error"
		},
		{
			"inputs": [
				{
					"internalType": "address",
					"name": "sender",
					"type": "address"
				},
				{
					"internalType": "uint256",
					"name": "tokenId",
					"type": "uint256"
				},
				{
					"internalType": "address",
					"name": "owner",
					"type": "address"
				}
			],
			"name": "ERC721IncorrectOwner",
			"type": "error"
		},
		{
			"inputs": [
				{
					"internalType": "address",
					"name": "operator",
					"type": "address"
				},
				{
					"internalType": "uint256",
					"name": "tokenId",
					"type": "uint256"
				}
			],
			"name": "ERC721InsufficientApproval",
			"type": "error"
		},
		{
			"inputs": [
				{
					"internalType": "address",
					"name": "approver",
					"type": "address"
				}
			],
			"name": "ERC721InvalidApprover",
			"type": "error"
		},
		{
			"inputs": [
				{
					"internalType": "address",
					"name": "operator",
					"type": "address"
				}
			],
			"name": "ERC721InvalidOperator",
			"type": "error"
		},
		{
			"inputs": [
				{
					"internalType": "address",
					"name": "owner",
					"type": "address"
				}
			],
			"name": "ERC721InvalidOwner",
			"type": "error"
		},
		{
			"inputs": [
				{
					"internalType": "address",
					"name": "receiver",
					"type": "address"
				}
			],
			"name": "ERC721InvalidReceiver",
			"type": "error"
		},
		{
			"inputs": [
				{
					"internalType": "address",
					"name": "sender",
					"type": "address"
				}
			],
			"name": "ERC721InvalidSender",
			"type": "error"
		},
		{
			"inputs": [
				{
					"internalType": "uint256",
					"name": "tokenId",
					"type": "uint256"
				}
			],
			"name": "ERC721NonexistentToken",
			"type": "error"
		},
		{
			"inputs": [
				{
					"internalType": "address",
					"name": "owner",
					"type": "address"
				},
				{
					"internalType": "uint256",
					"name": "index",
					"type": "uint256"
				}
			],
			"name": "ERC721OutOfBoundsIndex",
			"type": "error"
		},
		{
			"inputs": [],
			"name": "EnforcedPause",
			"type": "error"
		},
		{
			"inputs": [],
			"name": "ExpectedPause",
			"type": "error"
		},
		{
			"inputs": [
				{
					"internalType": "address",
					"name": "owner",
					"type": "address"
				}
			],
			"name": "OwnableInvalidOwner",
			"type": "error"
		},
		{
			"inputs": [
				{
					"internalType": "address",
					"name": "account",
					"type": "address"
				}
			],
			"name": "OwnableUnauthorizedAccount",
			"type": "error"
		},
		{
			"anonymous": false,
			"inputs": [
				{
					"indexed": true,
					"internalType": "address",
					"name": "owner",
					"type": "address"
				},
				{
					"indexed": true,
					"internalType": "address",
					"name": "approved",
					"type": "address"
				},
				{
					"indexed": true,
					"internalType": "uint256",
					"name": "tokenId",
					"type": "uint256"
				}
			],
			"name": "Approval",
			"type": "event"
		},
		{
			"anonymous": false,
			"inputs": [
				{
					"indexed": true,
					"internalType": "address",
					"name": "owner",
					"type": "address"
				},
				{
					"indexed": true,
					"internalType": "address",
					"name": "operator",
					"type": "address"
				},
				{
					"indexed": false,
					"internalType": "bool",
					"name": "approved",
					"type": "bool"
				}
			],
			"name": "ApprovalForAll",
			"type": "event"
		},
		{
			"anonymous": false,
			"inputs": [
				{
					"indexed": true,
					"internalType": "address",
					"name": "previousOwner",
					"type": "address"
				},
				{
					"indexed": true,
					"internalType": "address",
					"name": "newOwner",
					"type": "address"
				}
			],
			"name": "OwnershipTransferred",
			"type": "event"
		},
		{
			"anonymous": false,
			"inputs": [
				{
					"indexed": false,
					"internalType": "address",
					"name": "account",
					"type": "address"
				}
			],
			"name": "Paused",
			"type": "event"
		},
		{
			"anonymous": false,
			"inputs": [
				{
					"indexed": true,
					"internalType": "address",
					"name": "from",
					"type": "address"
				},
				{
					"indexed": true,
					"internalType": "address",
					"name": "to",
					"type": "address"
				},
				{
					"indexed": true,
					"internalType": "uint256",
					"name": "tokenId",
					"type": "uint256"
				}
			],
			"name": "Transfer",
			"type": "event"
		},
		{
			"anonymous": false,
			"inputs": [
				{
					"indexed": false,
					"internalType": "address",
					"name": "account",
					"type": "address"
				}
			],
			"name": "Unpaused",
			"type": "event"
		},
		{
			"inputs": [
				{
					"internalType": "address",
					"name": "to",
					"type": "address"
				},
				{
					"internalType": "uint256",
					"name": "tokenId",
					"type": "uint256"
				}
			],
			"name": "approve",
			"outputs": [],
			"stateMutability": "nonpayable",
			"type": "function"
		},
		{
			"inputs": [
				{
					"internalType": "address",
					"name": "owner",
					"type": "address"
				}
			],
			"name": "balanceOf",
			"outputs": [
				{
					"internalType": "uint256",
					"name": "",
					"type": "uint256"
				}
			],
			"stateMutability": "view",
			"type": "function"
		},
		{
			"inputs": [
				{
					"internalType": "uint256",
					"name": "tokenId",
					"type": "uint256"
				}
			],
			"name": "getApproved",
			"outputs": [
				{
					"internalType": "address",
					"name": "",
					"type": "address"
				}
			],
			"stateMutability": "view",
			"type": "function"
		},
		{
			"inputs": [
				{
					"internalType": "address",
					"name": "owner",
					"type": "address"
				},
				{
					"internalType": "address",
					"name": "operator",
					"type": "address"
				}
			],
			"name": "isApprovedForAll",
			"outputs": [
				{
					"internalType": "bool",
					"name": "",
					"type": "bool"
				}
			],
			"stateMutability": "view",
			"type": "function"
		},
		{
			"inputs": [],
			"name": "name",
			"outputs": [
				{
					"internalType": "string",
					"name": "",
					"type": "string"
				}
			],
			"stateMutability": "view",
			"type": "function"
		},
		{
			"inputs": [],
			"name": "owner",
			"outputs": [
				{
					"internalType": "address",
					"name": "",
					"type": "address"
				}
			],
			"stateMutability": "view",
			"type": "function"
		},
		{
			"inputs": [
				{
					"internalType": "uint256",
					"name": "tokenId",
					"type": "uint256"
				}
			],
			"name": "ownerOf",
			"outputs": [
				{
					"internalType": "address",
					"name": "",
					"type": "address"
				}
			],
			"stateMutability": "view",
			"type": "function"
		},
		{
			"inputs": [],
			"name": "pause",
			"outputs": [],
			"stateMutability": "nonpayable",
			"type": "function"
		},
		{
			"inputs": [],
			"name": "paused",
			"outputs": [
				{
					"internalType": "bool",
					"name": "",
					"type": "bool"
				}
			],
			"stateMutability": "view",
			"type": "function"
		},
		{
			"inputs": [],
			"name": "publicMint",
			"outputs": [],
			"stateMutability": "payable",
			"type": "function"
		},
		{
			"inputs": [],
			"name": "renounceOwnership",
			"outputs": [],
			"stateMutability": "nonpayable",
			"type": "function"
		},
		{
			"inputs": [
				{
					"internalType": "address",
					"name": "from",
					"type": "address"
				},
				{
					"internalType": "address",
					"name": "to",
					"type": "address"
				},
				{
					"internalType": "uint256",
					"name": "tokenId",
					"type": "uint256"
				}
			],
			"name": "safeTransferFrom",
			"outputs": [],
			"stateMutability": "nonpayable",
			"type": "function"
		},
		{
			"inputs": [
				{
					"internalType": "address",
					"name": "from",
					"type": "address"
				},
				{
					"internalType": "address",
					"name": "to",
					"type": "address"
				},
				{
					"internalType": "uint256",
					"name": "tokenId",
					"type": "uint256"
				},
				{
					"internalType": "bytes",
					"name": "data",
					"type": "bytes"
				}
			],
			"name": "safeTransferFrom",
			"outputs": [],
			"stateMutability": "nonpayable",
			"type": "function"
		},
		{
			"inputs": [
				{
					"internalType": "address",
					"name": "operator",
					"type": "address"
				},
				{
					"internalType": "bool",
					"name": "approved",
					"type": "bool"
				}
			],
			"name": "setApprovalForAll",
			"outputs": [],
			"stateMutability": "nonpayable",
			"type": "function"
		},
		{
			"inputs": [
				{
					"internalType": "bytes4",
					"name": "interfaceId",
					"type": "bytes4"
				}
			],
			"name": "supportsInterface",
			"outputs": [
				{
					"internalType": "bool",
					"name": "",
					"type": "bool"
				}
			],
			"stateMutability": "view",
			"type": "function"
		},
		{
			"inputs": [],
			"name": "symbol",
			"outputs": [
				{
					"internalType": "string",
					"name": "",
					"type": "string"
				}
			],
			"stateMutability": "view",
			"type": "function"
		},
		{
			"inputs": [
				{
					"internalType": "uint256",
					"name": "index",
					"type": "uint256"
				}
			],
			"name": "tokenByIndex",
			"outputs": [
				{
					"internalType": "uint256",
					"name": "",
					"type": "uint256"
				}
			],
			"stateMutability": "view",
			"type": "function"
		},
		{
			"inputs": [
				{
					"internalType": "address",
					"name": "owner",
					"type": "address"
				},
				{
					"internalType": "uint256",
					"name": "index",
					"type": "uint256"
				}
			],
			"name": "tokenOfOwnerByIndex",
			"outputs": [
				{
					"internalType": "uint256",
					"name": "",
					"type": "uint256"
				}
			],
			"stateMutability": "view",
			"type": "function"
		},
		{
			"inputs": [
				{
					"internalType": "uint256",
					"name": "tokenId",
					"type": "uint256"
				}
			],
			"name": "tokenURI",
			"outputs": [
				{
					"internalType": "string",
					"name": "",
					"type": "string"
				}
			],
			"stateMutability": "view",
			"type": "function"
		},
		{
			"inputs": [],
			"name": "totalSupply",
			"outputs": [
				{
					"internalType": "uint256",
					"name": "",
					"type": "uint256"
				}
			],
			"stateMutability": "view",
			"type": "function"
		},
		{
			"inputs": [
				{
					"internalType": "address",
					"name": "from",
					"type": "address"
				},
				{
					"internalType": "address",
					"name": "to",
					"type": "address"
				},
				{
					"internalType": "uint256",
					"name": "tokenId",
					"type": "uint256"
				}
			],
			"name": "transferFrom",
			"outputs": [],
			"stateMutability": "nonpayable",
			"type": "function"
		},
		{
			"inputs": [
				{
					"internalType": "address",
					"name": "newOwner",
					"type": "address"
				}
			],
			"name": "transferOwnership",
			"outputs": [],
			"stateMutability": "nonpayable",
			"type": "function"
		},
		{
			"inputs": [],
			"name": "unpause",
			"outputs": [],
			"stateMutability": "nonpayable",
			"type": "function"
		}
	]
}